{
  "_format": "hh-sol-artifact-1",
  "contractName": "Tracking",
  "sourceName": "contracts/Tracking.sol",
  "abi": [
    {
      "anonymous": false,
      "inputs": [
        {
          "indexed": true,
          "internalType": "string",
          "name": "productId",
          "type": "string"
        },
        {
          "indexed": false,
          "internalType": "string",
          "name": "location",
          "type": "string"
        },
        {
          "indexed": true,
          "internalType": "address",
          "name": "updatedBy",
          "type": "address"
        },
        {
          "indexed": false,
          "internalType": "uint256",
          "name": "timestamp",
          "type": "uint256"
        }
      ],
      "name": "ProductLocationUpdated",
      "type": "event"
    },
    {
      "anonymous": false,
      "inputs": [
        {
          "indexed": true,
          "internalType": "string",
          "name": "productId",
          "type": "string"
        },
        {
          "indexed": true,
          "internalType": "address",
          "name": "previousOwner",
          "type": "address"
        },
        {
          "indexed": true,
          "internalType": "address",
          "name": "newOwner",
          "type": "address"
        },
        {
          "indexed": false,
          "internalType": "string",
          "name": "reason",
          "type": "string"
        },
        {
          "indexed": false,
          "internalType": "uint256",
          "name": "timestamp",
          "type": "uint256"
        }
      ],
      "name": "ProductOwnershipTransferred",
      "type": "event"
    },
    {
      "anonymous": false,
      "inputs": [
        {
          "indexed": true,
          "internalType": "string",
          "name": "productId",
          "type": "string"
        },
        {
          "indexed": false,
          "internalType": "uint256",
          "name": "oldQuantity",
          "type": "uint256"
        },
        {
          "indexed": false,
          "internalType": "uint256",
          "name": "newQuantity",
          "type": "uint256"
        },
        {
          "indexed": true,
          "internalType": "address",
          "name": "updatedBy",
          "type": "address"
        },
        {
          "indexed": false,
          "internalType": "uint256",
          "name": "timestamp",
          "type": "uint256"
        }
      ],
      "name": "ProductQuantityUpdated",
      "type": "event"
    },
    {
      "anonymous": false,
      "inputs": [
        {
          "indexed": true,
          "internalType": "string",
          "name": "productId",
          "type": "string"
        },
        {
          "indexed": false,
          "internalType": "string",
          "name": "name",
          "type": "string"
        },
        {
          "indexed": true,
          "internalType": "address",
          "name": "owner",
          "type": "address"
        },
        {
          "indexed": false,
          "internalType": "uint256",
          "name": "timestamp",
          "type": "uint256"
        },
        {
          "indexed": false,
          "internalType": "uint256",
          "name": "price",
          "type": "uint256"
        },
        {
          "indexed": false,
          "internalType": "string",
          "name": "category",
          "type": "string"
        }
      ],
      "name": "ProductRegistered",
      "type": "event"
    },
    {
      "anonymous": false,
      "inputs": [
        {
          "indexed": true,
          "internalType": "string",
          "name": "productId",
          "type": "string"
        },
        {
          "indexed": true,
          "internalType": "address",
          "name": "verifier",
          "type": "address"
        },
        {
          "indexed": false,
          "internalType": "bool",
          "name": "isAuthentic",
          "type": "bool"
        },
        {
          "indexed": false,
          "internalType": "string",
          "name": "location",
          "type": "string"
        },
        {
          "indexed": false,
          "internalType": "uint256",
          "name": "timestamp",
          "type": "uint256"
        },
        {
          "indexed": false,
          "internalType": "uint256",
          "name": "responseTime",
          "type": "uint256"
        }
      ],
      "name": "ProductVerified",
      "type": "event"
    },
    {
      "inputs": [
        {
          "internalType": "uint256",
          "name": "",
          "type": "uint256"
        }
      ],
      "name": "allProductIds",
      "outputs": [
        {
          "internalType": "string",
          "name": "",
          "type": "string"
        }
      ],
      "stateMutability": "view",
      "type": "function"
    },
    {
      "inputs": [],
      "name": "getAnalyticsData",
      "outputs": [
        {
          "internalType": "uint256",
          "name": "totalProductsCount",
          "type": "uint256"
        },
        {
          "internalType": "uint256",
          "name": "totalVerificationsCount",
          "type": "uint256"
        },
        {
          "internalType": "uint256",
          "name": "totalEventsCount",
          "type": "uint256"
        },
        {
          "internalType": "uint256",
          "name": "activeProductsCount",
          "type": "uint256"
        }
      ],
      "stateMutability": "view",
      "type": "function"
    },
    {
      "inputs": [],
      "name": "getProductCount",
      "outputs": [
        {
          "internalType": "uint256",
          "name": "count",
          "type": "uint256"
        }
      ],
      "stateMutability": "view",
      "type": "function"
    },
    {
      "inputs": [
        {
          "internalType": "string",
          "name": "_productId",
          "type": "string"
        }
      ],
      "name": "getProductDetails",
      "outputs": [
        {
          "internalType": "string",
          "name": "productId",
          "type": "string"
        },
        {
          "internalType": "string",
          "name": "name",
          "type": "string"
        },
        {
          "internalType": "string",
          "name": "category",
          "type": "string"
        },
        {
          "internalType": "string",
          "name": "sku",
          "type": "string"
        },
        {
          "internalType": "uint256",
          "name": "price",
          "type": "uint256"
        },
        {
          "internalType": "uint256",
          "name": "quantity",
          "type": "uint256"
        },
        {
          "internalType": "string",
          "name": "origin",
          "type": "string"
        },
        {
          "internalType": "address",
          "name": "currentOwner",
          "type": "address"
        },
        {
          "internalType": "uint256",
          "name": "registrationTime",
          "type": "uint256"
        },
        {
          "internalType": "bool",
          "name": "isActive",
          "type": "bool"
        }
      ],
      "stateMutability": "view",
      "type": "function"
    },
    {
      "inputs": [
        {
          "internalType": "address",
          "name": "_owner",
          "type": "address"
        }
      ],
      "name": "getProductsByOwner",
      "outputs": [
        {
          "internalType": "string[]",
          "name": "ownedProductIds",
          "type": "string[]"
        }
      ],
      "stateMutability": "view",
      "type": "function"
    },
    {
      "inputs": [
        {
          "internalType": "uint256",
          "name": "_count",
          "type": "uint256"
        }
      ],
      "name": "getRecentProducts",
      "outputs": [
        {
          "internalType": "string[]",
          "name": "recentProductIds",
          "type": "string[]"
        }
      ],
      "stateMutability": "view",
      "type": "function"
    },
    {
      "inputs": [
        {
          "internalType": "address",
          "name": "",
          "type": "address"
        },
        {
          "internalType": "uint256",
          "name": "",
          "type": "uint256"
        }
      ],
      "name": "ownerProducts",
      "outputs": [
        {
          "internalType": "string",
          "name": "",
          "type": "string"
        }
      ],
      "stateMutability": "view",
      "type": "function"
    },
    {
      "inputs": [
        {
          "internalType": "string",
          "name": "",
          "type": "string"
        }
      ],
      "name": "productExists",
      "outputs": [
        {
          "internalType": "bool",
          "name": "",
          "type": "bool"
        }
      ],
      "stateMutability": "view",
      "type": "function"
    },
    {
      "inputs": [
        {
          "internalType": "string",
          "name": "",
          "type": "string"
        },
        {
          "internalType": "uint256",
          "name": "",
          "type": "uint256"
        }
      ],
      "name": "productHistory",
      "outputs": [
        {
          "internalType": "uint256",
          "name": "timestamp",
          "type": "uint256"
        },
        {
          "internalType": "string",
          "name": "location",
          "type": "string"
        },
        {
          "internalType": "string",
          "name": "description",
          "type": "string"
        },
        {
          "internalType": "address",
          "name": "updatedBy",
          "type": "address"
        },
        {
          "internalType": "string",
          "name": "eventType",
          "type": "string"
        }
      ],
      "stateMutability": "view",
      "type": "function"
    },
    {
      "inputs": [
        {
          "internalType": "string",
          "name": "",
          "type": "string"
        },
        {
          "internalType": "uint256",
          "name": "",
          "type": "uint256"
        }
      ],
      "name": "productVerifications",
      "outputs": [
        {
          "internalType": "string",
          "name": "productId",
          "type": "string"
        },
        {
          "internalType": "address",
          "name": "verifier",
          "type": "address"
        },
        {
          "internalType": "string",
          "name": "location",
          "type": "string"
        },
        {
          "internalType": "uint256",
          "name": "timestamp",
          "type": "uint256"
        },
        {
          "internalType": "bool",
          "name": "isAuthentic",
          "type": "bool"
        },
        {
          "internalType": "uint256",
          "name": "responseTime",
          "type": "uint256"
        }
      ],
      "stateMutability": "view",
      "type": "function"
    },
    {
      "inputs": [
        {
          "internalType": "string",
          "name": "",
          "type": "string"
        }
      ],
      "name": "products",
      "outputs": [
        {
          "internalType": "string",
          "name": "productId",
          "type": "string"
        },
        {
          "internalType": "string",
          "name": "name",
          "type": "string"
        },
        {
          "internalType": "string",
          "name": "category",
          "type": "string"
        },
        {
          "internalType": "string",
          "name": "sku",
          "type": "string"
        },
        {
          "internalType": "uint256",
          "name": "price",
          "type": "uint256"
        },
        {
          "internalType": "uint256",
          "name": "quantity",
          "type": "uint256"
        },
        {
          "internalType": "string",
          "name": "origin",
          "type": "string"
        },
        {
          "internalType": "address",
          "name": "currentOwner",
          "type": "address"
        },
        {
          "internalType": "uint256",
          "name": "registrationTime",
          "type": "uint256"
        },
        {
          "internalType": "bool",
          "name": "isActive",
          "type": "bool"
        }
      ],
      "stateMutability": "view",
      "type": "function"
    },
    {
      "inputs": [
        {
          "internalType": "string",
          "name": "_productId",
          "type": "string"
        },
        {
          "internalType": "string",
          "name": "_name",
          "type": "string"
        },
        {
          "internalType": "string",
          "name": "_category",
          "type": "string"
        },
        {
          "internalType": "string",
          "name": "_sku",
          "type": "string"
        },
        {
          "internalType": "uint256",
          "name": "_price",
          "type": "uint256"
        },
        {
          "internalType": "uint256",
          "name": "_quantity",
          "type": "uint256"
        },
        {
          "internalType": "string",
          "name": "_origin",
          "type": "string"
        }
      ],
      "name": "registerProduct",
      "outputs": [],
      "stateMutability": "nonpayable",
      "type": "function"
    },
    {
      "inputs": [],
      "name": "totalEvents",
      "outputs": [
        {
          "internalType": "uint256",
          "name": "",
          "type": "uint256"
        }
      ],
      "stateMutability": "view",
      "type": "function"
    },
    {
      "inputs": [],
      "name": "totalProducts",
      "outputs": [
        {
          "internalType": "uint256",
          "name": "",
          "type": "uint256"
        }
      ],
      "stateMutability": "view",
      "type": "function"
    },
    {
      "inputs": [],
      "name": "totalVerifications",
      "outputs": [
        {
          "internalType": "uint256",
          "name": "",
          "type": "uint256"
        }
      ],
      "stateMutability": "view",
      "type": "function"
    },
    {
      "inputs": [
        {
          "internalType": "string",
          "name": "_productId",
          "type": "string"
        },
        {
          "internalType": "string",
          "name": "_location",
          "type": "string"
        },
        {
          "internalType": "uint256",
          "name": "_responseTime",
          "type": "uint256"
        }
      ],
      "name": "verifyProduct",
      "outputs": [],
      "stateMutability": "nonpayable",
      "type": "function"
    },
    {
      "inputs": [
        {
          "internalType": "string",
          "name": "_productId",
          "type": "string"
        }
      ],
      "name": "verifyProductAuthenticity",
      "outputs": [
        {
          "internalType": "bool",
          "name": "isAuthentic",
          "type": "bool"
        },
        {
          "internalType": "string",
          "name": "verificationMessage",
          "type": "string"
        }
      ],
      "stateMutability": "view",
      "type": "function"
    }
  ],
  "bytecode": "0x6080806040523461001657611b0e908161001c8239f35b600080fdfe6080604052600436101561001257600080fd5b60003560e01c80630186a4231461108057806301970b1114610fd45780630fecef4814610f4b578063198c59b014610e125780634a348da914610a8157806369be1fec14610d045780636ed0e0cb14610cad578063797c027514610bc25780638addc05114610b615780638b55e50014610a9f5780639b9d326d14610a81578063a624fe301461059a578063a78001641461054d578063a8dfdccb14610163578063ac90c14014610145578063ba870686146101275763dde1bbcf146100d757600080fd5b34610122576020366003190112610122576004356005548110156101225761010a61010461011e92611495565b906114e4565b6040519182916020835260208301906112ed565b0390f35b600080fd5b34610122576000366003190112610122576020600854604051908152f35b34610122576000366003190112610122576020600754604051908152f35b34610122576060366003190112610122576001600160401b03600435818111610122576101949036906004016111a3565b9060243591818311610122576101b16101209336906004016111a3565b916040516101e060ff845192602081818801956101cf8183896111ea565b810160038152030190205416611633565b60405160208185516101f38183876111ea565b8101600081520301902060405161020981611130565b61021282611247565b815261022060018301611247565b602082015261023160028301611247565b604082015261024260038301611247565b606082015260048201546080820152600582015460a082015261026760068301611247565b60c082015260078201546001600160a01b031660e08201526008820154610100820181905260099092015460ff161515960186905285610542575b5060206102ba916040518093819287519283916111ea565b810160028152030190206040519160c08301908382109082111761052c57604052828252336020830152836040830152426060830152841515608083015260443560a08301528054600160401b81101561052c5761031d91600182018155611479565b919091610516577fb34c950890fbaf889a30e5efa16964c43fbbe0c06bf6432a9adc92b5a659df52926104d892600560a08461035d6104be9651856114f5565b60018401600180841b036020830151166bffffffffffffffffffffffff841b8254161790556103936040820151600286016114f5565b606081015160038501556103bc60808201511515600486019060ff801983541691151516179055565b01519101556103cc600754611604565b60075585156104ef576104b96040516103e48161114c565b600981526841555448454e54494360b81b60208201525b610490604a61040b604435611a11565b92604051938491750283937b23ab1ba103b32b934b334b1b0ba34b7b71d160551b60208401526104458151809260206036870191016111ea565b820170010142932b9b837b739b2903a34b6b29d1607d1b60368201526104758251809360206047850191016111ea565b01626d732960e81b604782015203602a810184520182611167565b6040519061049d8261114c565b6008825267159154925192515160c21b60208301528784611928565b611613565b9260405194151585526080602086015260808501906112ed565b9242604082015260443560608201528033940390a3005b6104b96040516104fe8161114c565b600681526511905253115160d21b60208201526103fb565b634e487b7160e01b600052600060045260246000fd5b634e487b7160e01b600052604160045260246000fd5b1515945060206102a2565b3461012257604036600319011261012257610566611401565b6001600160a01b031660009081526004602052604090208054602435908110156101225761010461010a9161011e936114cc565b346101225760e0366003190112610122576001600160401b03600435818111610122576105cb9036906004016111a3565b9060248035828111610122576105e59036906004016111a3565b906044938435848111610122576106009036906004016111a3565b9460649283358681116101225761061b9036906004016111a3565b916084359660a4359060c4359081116101225761063c9036906004016111a3565b936040519686519360ff6020998a81818c019861065a81838c6111ea565b810160038152030190205416610a4857875115610a08578951156109c8578a156109885783156109485750508686918b6040519461069786611130565b8486528c848701938d855260408801938452606088019081526080880191825260a0880192835260c08801938b855260e08901953387528a6101008b0198428a526101208c019a60018c52604051809381925180926106f5926111ea565b81016000815203019020995161070b908b6114f5565b516107199060018b016114f5565b516107279060028a016114f5565b5161073590600389016114f5565b5160048701555160058601555161074f90600686016114f5565b6007840190600160a01b600190039051166bffffffffffffffffffffffff60a01b8254161790555160088301555115159060090190610799919060ff801983541691151516179055565b84604051808093875180926107ad926111ea565b8101600381520301902060ff198154166001179055600554600160401b908181101561091e578060016107e39201600555611495565b61093357846107f1916114f5565b3360005260048552604060002080549182101561091e5790610818916001820181556114cc565b91909161090a5750926108d6836104b96109059461085b7f8a0428d64a9e01b41ef7e98447f32703f6bb925bf61d85e854658bf1dd6c635899976108eb996114f5565b610866600654611604565b600655604051730283937b23ab1ba103932b3b4b9ba32b932b21d160651b868201526108b06034828a516108a0818d8c86860191016111ea565b8101036014810184520182611167565b604051916108bd8361114c565b600783526610d4915055115160ca1b8784015284611928565b956040519485946080865260808601906112ed565b9142908501526040840152828103606084015233966112ed565b0390a3005b634e487b7160e01b60005260006004526000fd5b82634e487b7160e01b60005260416004526000fd5b82634e487b7160e01b60005260006004526000fd5b7f5175616e74697479206d7573742062652067726561746572207468616e2030008991601f886040519462461bcd60e51b86526004860152840152820152fd5b7f5072696365206d7573742062652067726561746572207468616e2030000000008991601c886040519462461bcd60e51b86526004860152840152820152fd5b7f50726f64756374206e616d652063616e6e6f7420626520656d707479000000008991601c886040519462461bcd60e51b86526004860152840152820152fd5b7f50726f647563742049442063616e6e6f7420626520656d7074790000000000008991601a886040519462461bcd60e51b86526004860152840152820152fd5b7550726f6475637420616c72656164792065786973747360501b89916016886040519462461bcd60e51b86526004860152840152820152fd5b34610122576000366003190112610122576020600654604051908152f35b34610122576020610ac7610ab23661139e565b929081604051938285809451938492016111ea565b81016002815203019020805482101561012257610b3891610ae791611479565b50610af181611247565b9060018060a01b0360018201541690610b0c60028201611247565b90610b4b600382015493600560ff6004850154169301549360405197889760c0895260c08901906112ed565b91602088015286820360408801526112ed565b9260608501521515608084015260a08301520390f35b34610122576020366003190112610122576004356001600160401b0381116101225760ff610bac6020610b99819436906004016111a3565b81604051938285809451938492016111ea565b8101600381520301902054166040519015158152f35b3461012257602080600319360112610122576005549060043582811115610ca85750815b610bef816118fd565b91610bfd6040519384611167565b818352601f19610c0c836118fd565b0160005b818110610c99575050506000198381019380851160005b848110610c3c576040518061011e8882611417565b81610c8357838184030190878211610c8357610c63610c5d610c7e93611495565b50611247565b610c6d8289611914565b52610c788188611914565b50611604565b610c27565b634e487b7160e01b600052601160045260246000fd5b60608582018401528201610c10565b610be6565b34610122576020366003190112610122576004356001600160401b03811161012257610ce0610ce59136906004016111a3565b611678565b9061011e604051928392151583526040602084015260408301906112ed565b3461012257600036600319011261012257600080600554905b818110610d49576080836006549060075460085490604051938452602084015260408301526060820152f35b610d5281611495565b50604051906000908054610d658161120d565b91600191808316908115610df75750600114610dba575b5050600082525081900360200190206009015460ff16610da5575b610da090611604565b610d1d565b91610db2610da091611604565b929050610d97565b9091925060005260209081600020906000915b848310610de657505050908201905081602060ff610d7c565b805486840152918301918101610dcd565b60ff19168652505050801515028201905081602060ff610d7c565b34610122576020366003190112610122576004356001600160401b038111610122576020610e47610e759236906004016111a3565b60405190610e6460ff8251938581818601966101cf81838a6111ea565b6040519384928392519283916111ea565b81016000815203019020604051610e8b81611130565b610e9482611247565b815261011e610ea560018401611247565b9160208101928352610eb960028501611247565b9360408201948552610ecd60038201611247565b606083019081526004820154906080840191825260058301549060a08501918252610efa60068501611247565b918260c087015260018060a01b03600786015416938460e088015260ff6009600888015497886101008b0152015416151596876101208201525198519951925190519151926040519a8b9a8b611312565b3461012257602080600319360112610122576001600160a01b03610f6d611401565b166000526004815260406000208054610f85816118fd565b91610f936040519384611167565b8183526000908152838120938084015b838310610fb8576040518061011e8782611417565b6001828192610fc689611247565b815201960192019194610fa3565b34610122576020610fe7610ab23661139e565b8101600181520301902090815481101561012257611004916113cf565b50805461011e61101660018401611247565b9261102360028201611247565b60038201546001600160a01b03169161106d9061104290600401611247565b9161105f604051978897885260a0602089015260a08801906112ed565b9086820360408801526112ed565b91606085015283820360808501526112ed565b34610122576020366003190112610122576004356001600160401b038111610122576020610b996110b59236906004016111a3565b810160008152030190206110c881611247565b61011e6110d760018401611247565b926110e460028201611247565b906110f160038201611247565b6004820154600583015461110760068501611247565b9160018060a01b036007860154169360ff6009600888015497015416966040519a8b9a8b611312565b61014081019081106001600160401b0382111761052c57604052565b604081019081106001600160401b0382111761052c57604052565b90601f801991011681019081106001600160401b0382111761052c57604052565b6001600160401b03811161052c57601f01601f191660200190565b81601f82011215610122578035906111ba82611188565b926111c86040519485611167565b8284526020838301011161012257816000926020809301838601378301015290565b60005b8381106111fd5750506000910152565b81810151838201526020016111ed565b90600182811c9216801561123d575b602083101461122757565b634e487b7160e01b600052602260045260246000fd5b91607f169161121c565b906040519182600082549261125b8461120d565b9081845260019485811690816000146112ca5750600114611287575b505061128592500383611167565b565b9093915060005260209081600020936000915b8183106112b257505061128593508201013880611277565b8554888401850152948501948794509183019161129a565b91505061128594506020925060ff191682840152151560051b8201013880611277565b90602091611306815180928185528580860191016111ea565b601f01601f1916010190565b9895919361135b610120999c9b989461134d8c611381999861133f611369976101408085528401906112ed565b9160208184039101526112ed565b8c810360408e0152906112ed565b908a820360608c01526112ed565b92608089015260a088015286820360c08801526112ed565b6001600160a01b0390961660e08501526101008401521515910152565b604060031982011261012257600435906001600160401b038211610122576113c8916004016111a3565b9060243590565b80548210156113eb576000526005602060002091020190600090565b634e487b7160e01b600052603260045260246000fd5b600435906001600160a01b038216820361012257565b602080820190808352835180925260408301928160408460051b8301019501936000915b84831061144b5750505050505090565b9091929394958480611469600193603f198682030187528a516112ed565b980193019301919493929061143b565b80548210156113eb576000526006602060002091020190600090565b6005548110156113eb5760056000527f036b6384b5eca791c62761152d0c79bb0604c104a5fb6f4eb0703f3154bb3db00190600090565b80548210156113eb5760005260206000200190600090565b90610516576114f290611247565b90565b91909182516001600160401b03811161052c57611512825461120d565b601f81116115bc575b50602080601f831160011461155857508192939460009261154d575b50508160011b916000199060031b1c1916179055565b015190503880611537565b90601f198316958460005282600020926000905b8882106115a45750508360019596971061158b575b505050811b019055565b015160001960f88460031b161c19169055388080611581565b8060018596829496860151815501950193019061156c565b600083815260208120601f840160051c810192602085106115fa575b601f0160051c01915b8281106115ef57505061151b565b8181556001016115e1565b90925082906115d8565b6000198114610c835760010190565b61162b906020604051928284809451938492016111ea565b810103902090565b1561163a57565b60405162461bcd60e51b8152602060048201526016602482015275141c9bd91d58dd08191bd95cc81b9bdd08195e1a5cdd60521b6044820152606490fd5b906040918251815160ff6020928381818701946116968183886111ea565b810160038152030190205416156118c1578451828185516116b88183876111ea565b810160008152030190209085516116ce81611130565b6116d783611247565b81526116e560018401611247565b848201526116f560028401611247565b8782015261170560038401611247565b606082015260048301546080820152600583015460a082015261172a60068401611247565b60c082015260018060a01b0360078401541660e082015260ff600960088501549461010084019586520154161590610120821591015261188457948261185861187e95936117d26117cc6117bc606998650103bb4ba34160d51b9c6117ab895183818d516117998183886111ea565b81016002815203019020549651611a11565b9989519384928392519283916111ea565b8101600181520301902054611a11565b91611a11565b938051998a967f41757468656e7469632070726f647563742072656769737465726564206f6e208689015261180f8151809288868c0191016111ea565b87019182015261182882518093866046850191016111ea565b0191740103a3930b1b5b4b7339032bb32b73a399030b7321605d1b60468401528351938491605b850191016111ea565b016d20766572696669636174696f6e7360901b605b820152036049810185520183611167565b60019190565b505090507f50726f6475637420686173206265656e2064656163746976617465640000000060009351916118b78361114c565b601c835282015290565b5090507f50726f64756374206e6f7420666f756e64206f6e20626c6f636b636861696e0060009351916118f38361114c565b601f835282015290565b6001600160401b03811161052c5760051b60200190565b80518210156113eb5760209160051b010190565b6020611945919492939481604051938285809451938492016111ea565b81016001815203019020906040519160a083018381106001600160401b0382111761052c5760405242835260208301938452604083019485526060830190338252608084019283528054600160401b81101561052c576119aa916001820181556113cf565b94909461051657611a01956119cc6119d69260049651885551600188016114f5565b51600286016114f5565b516003840180546001600160a01b0319166001600160a01b03929092169190911790555191016114f5565b611a0c600854611604565b600855565b8015611aba5780816000925b611aa45750611a2b82611188565b91611a396040519384611167565b808352601f19611a4882611188565b01908260209236848701375b611a5e5750505090565b6000198101908111610c83578092600a9160308383068101809111610c835786518210156113eb5760f81b6001600160f81b03191660001a908601840153049182611a54565b9091611ab1600a91611604565b92910480611a1d565b50604051611ac78161114c565b60018152600360fc1b60208201529056fea2646970667358221220272cff33aabaf45c6a5b5521bd362904d424214814fab9fb5eb4b3a57f80c6b464736f6c63430008140033",
  "linkReferences": {},
  "deployedLinkReferences": {}
}