{"contracts/Tracking.sol":{"Tracking":{"abi":[{"anonymous":false,"inputs":[{"indexed":true,"internalType":"string","name":"productId","type":"string"},{"indexed":false,"internalType":"string","name":"location","type":"string"},{"indexed":true,"internalType":"address","name":"updatedBy","type":"address"},{"indexed":false,"internalType":"uint256","name":"timestamp","type":"uint256"}],"name":"ProductLocationUpdated","type":"event"},{"anonymous":false,"inputs":[{"indexed":true,"internalType":"string","name":"productId","type":"string"},{"indexed":true,"internalType":"address","name":"previousOwner","type":"address"},{"indexed":true,"internalType":"address","name":"newOwner","type":"address"},{"indexed":false,"internalType":"string","name":"reason","type":"string"},{"indexed":false,"internalType":"uint256","name":"timestamp","type":"uint256"}],"name":"ProductOwnershipTransferred","type":"event"},{"anonymous":false,"inputs":[{"indexed":true,"internalType":"string","name":"productId","type":"string"},{"indexed":false,"internalType":"uint256","name":"oldQuantity","type":"uint256"},{"indexed":false,"internalType":"uint256","name":"newQuantity","type":"uint256"},{"indexed":true,"internalType":"address","name":"updatedBy","type":"address"},{"indexed":false,"internalType":"uint256","name":"timestamp","type":"uint256"}],"name":"ProductQuantityUpdated","type":"event"},{"anonymous":false,"inputs":[{"indexed":true,"internalType":"string","name":"productId","type":"string"},{"indexed":false,"internalType":"string","name":"name","type":"string"},{"indexed":true,"internalType":"address","name":"owner","type":"address"},{"indexed":false,"internalType":"uint256","name":"timestamp","type":"uint256"},{"indexed":false,"internalType":"uint256","name":"price","type":"uint256"},{"indexed":false,"internalType":"string","name":"category","type":"string"}],"name":"ProductRegistered","type":"event"},{"anonymous":false,"inputs":[{"indexed":true,"internalType":"string","name":"productId","type":"string"},{"indexed":true,"internalType":"address","name":"verifier","type":"address"},{"indexed":false,"internalType":"bool","name":"isAuthentic","type":"bool"},{"indexed":false,"internalType":"string","name":"location","type":"string"},{"indexed":false,"internalType":"uint256","name":"timestamp","type":"uint256"},{"indexed":false,"internalType":"uint256","name":"responseTime","type":"uint256"}],"name":"ProductVerified","type":"event"},{"inputs":[{"internalType":"uint256","name":"","type":"uint256"}],"name":"allProductIds","outputs":[{"internalType":"string","name":"","type":"string"}],"stateMutability":"view","type":"function"},{"inputs":[],"name":"getAnalyticsData","outputs":[{"internalType":"uint256","name":"totalProductsCount","type":"uint256"},{"internalType":"uint256","name":"totalVerificationsCount","type":"uint256"},{"internalType":"uint256","name":"totalEventsCount","type":"uint256"},{"internalType":"uint256","name":"activeProductsCount","type":"uint256"}],"stateMutability":"view","type":"function"},{"inputs":[],"name":"getProductCount","outputs":[{"internalType":"uint256","name":"count","type":"uint256"}],"stateMutability":"view","type":"function"},{"inputs":[{"internalType":"string","name":"_productId","type":"string"}],"name":"getProductDetails","outputs":[{"internalType":"string","name":"productId","type":"string"},{"internalType":"string","name":"name","type":"string"},{"internalType":"string","name":"category","type":"string"},{"internalType":"string","name":"sku","type":"string"},{"internalType":"uint256","name":"price","type":"uint256"},{"internalType":"uint256","name":"quantity","type":"uint256"},{"internalType":"string","name":"origin","type":"string"},{"internalType":"address","name":"currentOwner","type":"address"},{"internalType":"uint256","name":"registrationTime","type":"uint256"},{"internalType":"bool","name":"isActive","type":"bool"}],"stateMutability":"view","type":"function"},{"inputs":[{"internalType":"address","name":"_owner","type":"address"}],"name":"getProductsByOwner","outputs":[{"internalType":"string[]","name":"ownedProductIds","type":"string[]"}],"stateMutability":"view","type":"function"},{"inputs":[{"internalType":"uint256","name":"_count","type":"uint256"}],"name":"getRecentProducts","outputs":[{"internalType":"string[]","name":"recentProductIds","type":"string[]"}],"stateMutability":"view","type":"function"},{"inputs":[{"internalType":"address","name":"","type":"address"},{"internalType":"uint256","name":"","type":"uint256"}],"name":"ownerProducts","outputs":[{"internalType":"string","name":"","type":"string"}],"stateMutability":"view","type":"function"},{"inputs":[{"internalType":"string","name":"","type":"string"}],"name":"productExists","outputs":[{"internalType":"bool","name":"","type":"bool"}],"stateMutability":"view","type":"function"},{"inputs":[{"internalType":"string","name":"","type":"string"},{"internalType":"uint256","name":"","type":"uint256"}],"name":"productHistory","outputs":[{"internalType":"uint256","name":"timestamp","type":"uint256"},{"internalType":"string","name":"location","type":"string"},{"internalType":"string","name":"description","type":"string"},{"internalType":"address","name":"updatedBy","type":"address"},{"internalType":"string","name":"eventType","type":"string"}],"stateMutability":"view","type":"function"},{"inputs":[{"internalType":"string","name":"","type":"string"},{"internalType":"uint256","name":"","type":"uint256"}],"name":"productVerifications","outputs":[{"internalType":"string","name":"productId","type":"string"},{"internalType":"address","name":"verifier","type":"address"},{"internalType":"string","name":"location","type":"string"},{"internalType":"uint256","name":"timestamp","type":"uint256"},{"internalType":"bool","name":"isAuthentic","type":"bool"},{"internalType":"uint256","name":"responseTime","type":"uint256"}],"stateMutability":"view","type":"function"},{"inputs":[{"internalType":"string","name":"","type":"string"}],"name":"products","outputs":[{"internalType":"string","name":"productId","type":"string"},{"internalType":"string","name":"name","type":"string"},{"internalType":"string","name":"category","type":"string"},{"internalType":"string","name":"sku","type":"string"},{"internalType":"uint256","name":"price","type":"uint256"},{"internalType":"uint256","name":"quantity","type":"uint256"},{"internalType":"string","name":"origin","type":"string"},{"internalType":"address","name":"currentOwner","type":"address"},{"internalType":"uint256","name":"registrationTime","type":"uint256"},{"internalType":"bool","name":"isActive","type":"bool"}],"stateMutability":"view","type":"function"},{"inputs":[{"internalType":"string","name":"_productId","type":"string"},{"internalType":"string","name":"_name","type":"string"},{"internalType":"string","name":"_category","type":"string"},{"internalType":"string","name":"_sku","type":"string"},{"internalType":"uint256","name":"_price","type":"uint256"},{"internalType":"uint256","name":"_quantity","type":"uint256"},{"internalType":"string","name":"_origin","type":"string"}],"name":"registerProduct","outputs":[],"stateMutability":"nonpayable","type":"function"},{"inputs":[],"name":"totalEvents","outputs":[{"internalType":"uint256","name":"","type":"uint256"}],"stateMutability":"view","type":"function"},{"inputs":[],"name":"totalProducts","outputs":[{"internalType":"uint256","name":"","type":"uint256"}],"stateMutability":"view","type":"function"},{"inputs":[],"name":"totalVerifications","outputs":[{"internalType":"uint256","name":"","type":"uint256"}],"stateMutability":"view","type":"function"},{"inputs":[{"internalType":"string","name":"_productId","type":"string"},{"internalType":"string","name":"_location","type":"string"},{"internalType":"uint256","name":"_responseTime","type":"uint256"}],"name":"verifyProduct","outputs":[],"stateMutability":"nonpayable","type":"function"},{"inputs":[{"internalType":"string","name":"_productId","type":"string"}],"name":"verifyProductAuthenticity","outputs":[{"internalType":"bool","name":"isAuthentic","type":"bool"},{"internalType":"string","name":"verificationMessage","type":"string"}],"stateMutability":"view","type":"function"}],"evm":{"bytecode":{"linkReferences":{},"object":"6080806040523461001657611b0e908161001c8239f35b600080fdfe6080604052600436101561001257600080fd5b60003560e01c80630186a4231461108057806301970b1114610fd45780630fecef4814610f4b578063198c59b014610e125780634a348da914610a8157806369be1fec14610d045780636ed0e0cb14610cad578063797c027514610bc25780638addc05114610b615780638b55e50014610a9f5780639b9d326d14610a81578063a624fe301461059a578063a78001641461054d578063a8dfdccb14610163578063ac90c14014610145578063ba870686146101275763dde1bbcf146100d757600080fd5b34610122576020366003190112610122576004356005548110156101225761010a61010461011e92611495565b906114e4565b6040519182916020835260208301906112ed565b0390f35b600080fd5b34610122576000366003190112610122576020600854604051908152f35b34610122576000366003190112610122576020600754604051908152f35b34610122576060366003190112610122576001600160401b03600435818111610122576101949036906004016111a3565b9060243591818311610122576101b16101209336906004016111a3565b916040516101e060ff845192602081818801956101cf8183896111ea565b810160038152030190205416611633565b60405160208185516101f38183876111ea565b8101600081520301902060405161020981611130565b61021282611247565b815261022060018301611247565b602082015261023160028301611247565b604082015261024260038301611247565b606082015260048201546080820152600582015460a082015261026760068301611247565b60c082015260078201546001600160a01b031660e08201526008820154610100820181905260099092015460ff161515960186905285610542575b5060206102ba916040518093819287519283916111ea565b810160028152030190206040519160c08301908382109082111761052c57604052828252336020830152836040830152426060830152841515608083015260443560a08301528054600160401b81101561052c5761031d91600182018155611479565b919091610516577fb34c950890fbaf889a30e5efa16964c43fbbe0c06bf6432a9adc92b5a659df52926104d892600560a08461035d6104be9651856114f5565b60018401600180841b036020830151166bffffffffffffffffffffffff841b8254161790556103936040820151600286016114f5565b606081015160038501556103bc60808201511515600486019060ff801983541691151516179055565b01519101556103cc600754611604565b60075585156104ef576104b96040516103e48161114c565b600981526841555448454e54494360b81b60208201525b610490604a61040b604435611a11565b92604051938491750283937b23ab1ba103b32b934b334b1b0ba34b7b71d160551b60208401526104458151809260206036870191016111ea565b820170010142932b9b837b739b2903a34b6b29d1607d1b60368201526104758251809360206047850191016111ea565b01626d732960e81b604782015203602a810184520182611167565b6040519061049d8261114c565b6008825267159154925192515160c21b60208301528784611928565b611613565b9260405194151585526080602086015260808501906112ed565b9242604082015260443560608201528033940390a3005b6104b96040516104fe8161114c565b600681526511905253115160d21b60208201526103fb565b634e487b7160e01b600052600060045260246000fd5b634e487b7160e01b600052604160045260246000fd5b1515945060206102a2565b3461012257604036600319011261012257610566611401565b6001600160a01b031660009081526004602052604090208054602435908110156101225761010461010a9161011e936114cc565b346101225760e0366003190112610122576001600160401b03600435818111610122576105cb9036906004016111a3565b9060248035828111610122576105e59036906004016111a3565b906044938435848111610122576106009036906004016111a3565b9460649283358681116101225761061b9036906004016111a3565b916084359660a4359060c4359081116101225761063c9036906004016111a3565b936040519686519360ff6020998a81818c019861065a81838c6111ea565b810160038152030190205416610a4857875115610a08578951156109c8578a156109885783156109485750508686918b6040519461069786611130565b8486528c848701938d855260408801938452606088019081526080880191825260a0880192835260c08801938b855260e08901953387528a6101008b0198428a526101208c019a60018c52604051809381925180926106f5926111ea565b81016000815203019020995161070b908b6114f5565b516107199060018b016114f5565b516107279060028a016114f5565b5161073590600389016114f5565b5160048701555160058601555161074f90600686016114f5565b6007840190600160a01b600190039051166bffffffffffffffffffffffff60a01b8254161790555160088301555115159060090190610799919060ff801983541691151516179055565b84604051808093875180926107ad926111ea565b8101600381520301902060ff198154166001179055600554600160401b908181101561091e578060016107e39201600555611495565b61093357846107f1916114f5565b3360005260048552604060002080549182101561091e5790610818916001820181556114cc565b91909161090a5750926108d6836104b96109059461085b7f8a0428d64a9e01b41ef7e98447f32703f6bb925bf61d85e854658bf1dd6c635899976108eb996114f5565b610866600654611604565b600655604051730283937b23ab1ba103932b3b4b9ba32b932b21d160651b868201526108b06034828a516108a0818d8c86860191016111ea565b8101036014810184520182611167565b604051916108bd8361114c565b600783526610d4915055115160ca1b8784015284611928565b956040519485946080865260808601906112ed565b9142908501526040840152828103606084015233966112ed565b0390a3005b634e487b7160e01b60005260006004526000fd5b82634e487b7160e01b60005260416004526000fd5b82634e487b7160e01b60005260006004526000fd5b7f5175616e74697479206d7573742062652067726561746572207468616e2030008991601f886040519462461bcd60e51b86526004860152840152820152fd5b7f5072696365206d7573742062652067726561746572207468616e2030000000008991601c886040519462461bcd60e51b86526004860152840152820152fd5b7f50726f64756374206e616d652063616e6e6f7420626520656d707479000000008991601c886040519462461bcd60e51b86526004860152840152820152fd5b7f50726f647563742049442063616e6e6f7420626520656d7074790000000000008991601a886040519462461bcd60e51b86526004860152840152820152fd5b7550726f6475637420616c72656164792065786973747360501b89916016886040519462461bcd60e51b86526004860152840152820152fd5b34610122576000366003190112610122576020600654604051908152f35b34610122576020610ac7610ab23661139e565b929081604051938285809451938492016111ea565b81016002815203019020805482101561012257610b3891610ae791611479565b50610af181611247565b9060018060a01b0360018201541690610b0c60028201611247565b90610b4b600382015493600560ff6004850154169301549360405197889760c0895260c08901906112ed565b91602088015286820360408801526112ed565b9260608501521515608084015260a08301520390f35b34610122576020366003190112610122576004356001600160401b0381116101225760ff610bac6020610b99819436906004016111a3565b81604051938285809451938492016111ea565b8101600381520301902054166040519015158152f35b3461012257602080600319360112610122576005549060043582811115610ca85750815b610bef816118fd565b91610bfd6040519384611167565b818352601f19610c0c836118fd565b0160005b818110610c99575050506000198381019380851160005b848110610c3c576040518061011e8882611417565b81610c8357838184030190878211610c8357610c63610c5d610c7e93611495565b50611247565b610c6d8289611914565b52610c788188611914565b50611604565b610c27565b634e487b7160e01b600052601160045260246000fd5b60608582018401528201610c10565b610be6565b34610122576020366003190112610122576004356001600160401b03811161012257610ce0610ce59136906004016111a3565b611678565b9061011e604051928392151583526040602084015260408301906112ed565b3461012257600036600319011261012257600080600554905b818110610d49576080836006549060075460085490604051938452602084015260408301526060820152f35b610d5281611495565b50604051906000908054610d658161120d565b91600191808316908115610df75750600114610dba575b5050600082525081900360200190206009015460ff16610da5575b610da090611604565b610d1d565b91610db2610da091611604565b929050610d97565b9091925060005260209081600020906000915b848310610de657505050908201905081602060ff610d7c565b805486840152918301918101610dcd565b60ff19168652505050801515028201905081602060ff610d7c565b34610122576020366003190112610122576004356001600160401b038111610122576020610e47610e759236906004016111a3565b60405190610e6460ff8251938581818601966101cf81838a6111ea565b6040519384928392519283916111ea565b81016000815203019020604051610e8b81611130565b610e9482611247565b815261011e610ea560018401611247565b9160208101928352610eb960028501611247565b9360408201948552610ecd60038201611247565b606083019081526004820154906080840191825260058301549060a08501918252610efa60068501611247565b918260c087015260018060a01b03600786015416938460e088015260ff6009600888015497886101008b0152015416151596876101208201525198519951925190519151926040519a8b9a8b611312565b3461012257602080600319360112610122576001600160a01b03610f6d611401565b166000526004815260406000208054610f85816118fd565b91610f936040519384611167565b8183526000908152838120938084015b838310610fb8576040518061011e8782611417565b6001828192610fc689611247565b815201960192019194610fa3565b34610122576020610fe7610ab23661139e565b8101600181520301902090815481101561012257611004916113cf565b50805461011e61101660018401611247565b9261102360028201611247565b60038201546001600160a01b03169161106d9061104290600401611247565b9161105f604051978897885260a0602089015260a08801906112ed565b9086820360408801526112ed565b91606085015283820360808501526112ed565b34610122576020366003190112610122576004356001600160401b038111610122576020610b996110b59236906004016111a3565b810160008152030190206110c881611247565b61011e6110d760018401611247565b926110e460028201611247565b906110f160038201611247565b6004820154600583015461110760068501611247565b9160018060a01b036007860154169360ff6009600888015497015416966040519a8b9a8b611312565b61014081019081106001600160401b0382111761052c57604052565b604081019081106001600160401b0382111761052c57604052565b90601f801991011681019081106001600160401b0382111761052c57604052565b6001600160401b03811161052c57601f01601f191660200190565b81601f82011215610122578035906111ba82611188565b926111c86040519485611167565b8284526020838301011161012257816000926020809301838601378301015290565b60005b8381106111fd5750506000910152565b81810151838201526020016111ed565b90600182811c9216801561123d575b602083101461122757565b634e487b7160e01b600052602260045260246000fd5b91607f169161121c565b906040519182600082549261125b8461120d565b9081845260019485811690816000146112ca5750600114611287575b505061128592500383611167565b565b9093915060005260209081600020936000915b8183106112b257505061128593508201013880611277565b8554888401850152948501948794509183019161129a565b91505061128594506020925060ff191682840152151560051b8201013880611277565b90602091611306815180928185528580860191016111ea565b601f01601f1916010190565b9895919361135b610120999c9b989461134d8c611381999861133f611369976101408085528401906112ed565b9160208184039101526112ed565b8c810360408e0152906112ed565b908a820360608c01526112ed565b92608089015260a088015286820360c08801526112ed565b6001600160a01b0390961660e08501526101008401521515910152565b604060031982011261012257600435906001600160401b038211610122576113c8916004016111a3565b9060243590565b80548210156113eb576000526005602060002091020190600090565b634e487b7160e01b600052603260045260246000fd5b600435906001600160a01b038216820361012257565b602080820190808352835180925260408301928160408460051b8301019501936000915b84831061144b5750505050505090565b9091929394958480611469600193603f198682030187528a516112ed565b980193019301919493929061143b565b80548210156113eb576000526006602060002091020190600090565b6005548110156113eb5760056000527f036b6384b5eca791c62761152d0c79bb0604c104a5fb6f4eb0703f3154bb3db00190600090565b80548210156113eb5760005260206000200190600090565b90610516576114f290611247565b90565b91909182516001600160401b03811161052c57611512825461120d565b601f81116115bc575b50602080601f831160011461155857508192939460009261154d575b50508160011b916000199060031b1c1916179055565b015190503880611537565b90601f198316958460005282600020926000905b8882106115a45750508360019596971061158b575b505050811b019055565b015160001960f88460031b161c19169055388080611581565b8060018596829496860151815501950193019061156c565b600083815260208120601f840160051c810192602085106115fa575b601f0160051c01915b8281106115ef57505061151b565b8181556001016115e1565b90925082906115d8565b6000198114610c835760010190565b61162b906020604051928284809451938492016111ea565b810103902090565b1561163a57565b60405162461bcd60e51b8152602060048201526016602482015275141c9bd91d58dd08191bd95cc81b9bdd08195e1a5cdd60521b6044820152606490fd5b906040918251815160ff6020928381818701946116968183886111ea565b810160038152030190205416156118c1578451828185516116b88183876111ea565b810160008152030190209085516116ce81611130565b6116d783611247565b81526116e560018401611247565b848201526116f560028401611247565b8782015261170560038401611247565b606082015260048301546080820152600583015460a082015261172a60068401611247565b60c082015260018060a01b0360078401541660e082015260ff600960088501549461010084019586520154161590610120821591015261188457948261185861187e95936117d26117cc6117bc606998650103bb4ba34160d51b9c6117ab895183818d516117998183886111ea565b81016002815203019020549651611a11565b9989519384928392519283916111ea565b8101600181520301902054611a11565b91611a11565b938051998a967f41757468656e7469632070726f647563742072656769737465726564206f6e208689015261180f8151809288868c0191016111ea565b87019182015261182882518093866046850191016111ea565b0191740103a3930b1b5b4b7339032bb32b73a399030b7321605d1b60468401528351938491605b850191016111ea565b016d20766572696669636174696f6e7360901b605b820152036049810185520183611167565b60019190565b505090507f50726f6475637420686173206265656e2064656163746976617465640000000060009351916118b78361114c565b601c835282015290565b5090507f50726f64756374206e6f7420666f756e64206f6e20626c6f636b636861696e0060009351916118f38361114c565b601f835282015290565b6001600160401b03811161052c5760051b60200190565b80518210156113eb5760209160051b010190565b6020611945919492939481604051938285809451938492016111ea565b81016001815203019020906040519160a083018381106001600160401b0382111761052c5760405242835260208301938452604083019485526060830190338252608084019283528054600160401b81101561052c576119aa916001820181556113cf565b94909461051657611a01956119cc6119d69260049651885551600188016114f5565b51600286016114f5565b516003840180546001600160a01b0319166001600160a01b03929092169190911790555191016114f5565b611a0c600854611604565b600855565b8015611aba5780816000925b611aa45750611a2b82611188565b91611a396040519384611167565b808352601f19611a4882611188565b01908260209236848701375b611a5e5750505090565b6000198101908111610c83578092600a9160308383068101809111610c835786518210156113eb5760f81b6001600160f81b03191660001a908601840153049182611a54565b9091611ab1600a91611604565b92910480611a1d565b50604051611ac78161114c565b60018152600360fc1b60208201529056fea2646970667358221220272cff33aabaf45c6a5b5521bd362904d424214814fab9fb5eb4b3a57f80c6b464736f6c63430008140033","opcodes":"PUSH1 0x80 DUP1 PUSH1 0x40 MSTORE CALLVALUE PUSH2 0x16 JUMPI PUSH2 0x1B0E SWAP1 DUP2 PUSH2 0x1C DUP3 CODECOPY RETURN JUMPDEST PUSH1 0x0 DUP1 REVERT INVALID PUSH1 0x80 PUSH1 0x40 MSTORE PUSH1 0x4 CALLDATASIZE LT ISZERO PUSH2 0x12 JUMPI PUSH1 0x0 DUP1 REVERT JUMPDEST PUSH1 0x0 CALLDATALOAD PUSH1 0xE0 SHR DUP1 PUSH4 0x186A423 EQ PUSH2 0x1080 JUMPI DUP1 PUSH4 0x1970B11 EQ PUSH2 0xFD4 JUMPI DUP1 PUSH4 0xFECEF48 EQ PUSH2 0xF4B JUMPI DUP1 PUSH4 0x198C59B0 EQ PUSH2 0xE12 JUMPI DUP1 PUSH4 0x4A348DA9 EQ PUSH2 0xA81 JUMPI DUP1 PUSH4 0x69BE1FEC EQ PUSH2 0xD04 JUMPI DUP1 PUSH4 0x6ED0E0CB EQ PUSH2 0xCAD JUMPI DUP1 PUSH4 0x797C0275 EQ PUSH2 0xBC2 JUMPI DUP1 PUSH4 0x8ADDC051 EQ PUSH2 0xB61 JUMPI DUP1 PUSH4 0x8B55E500 EQ PUSH2 0xA9F JUMPI DUP1 PUSH4 0x9B9D326D EQ PUSH2 0xA81 JUMPI DUP1 PUSH4 0xA624FE30 EQ PUSH2 0x59A JUMPI DUP1 PUSH4 0xA7800164 EQ PUSH2 0x54D JUMPI DUP1 PUSH4 0xA8DFDCCB EQ PUSH2 0x163 JUMPI DUP1 PUSH4 0xAC90C140 EQ PUSH2 0x145 JUMPI DUP1 PUSH4 0xBA870686 EQ PUSH2 0x127 JUMPI PUSH4 0xDDE1BBCF EQ PUSH2 0xD7 JUMPI PUSH1 0x0 DUP1 REVERT JUMPDEST CALLVALUE PUSH2 0x122 JUMPI PUSH1 0x20 CALLDATASIZE PUSH1 0x3 NOT ADD SLT PUSH2 0x122 JUMPI PUSH1 0x4 CALLDATALOAD PUSH1 0x5 SLOAD DUP2 LT ISZERO PUSH2 0x122 JUMPI PUSH2 0x10A PUSH2 0x104 PUSH2 0x11E SWAP3 PUSH2 0x1495 JUMP JUMPDEST SWAP1 PUSH2 0x14E4 JUMP JUMPDEST PUSH1 0x40 MLOAD SWAP2 DUP3 SWAP2 PUSH1 0x20 DUP4 MSTORE PUSH1 0x20 DUP4 ADD SWAP1 PUSH2 0x12ED JUMP JUMPDEST SUB SWAP1 RETURN JUMPDEST PUSH1 0x0 DUP1 REVERT JUMPDEST CALLVALUE PUSH2 0x122 JUMPI PUSH1 0x0 CALLDATASIZE PUSH1 0x3 NOT ADD SLT PUSH2 0x122 JUMPI PUSH1 0x20 PUSH1 0x8 SLOAD PUSH1 0x40 MLOAD SWAP1 DUP2 MSTORE RETURN JUMPDEST CALLVALUE PUSH2 0x122 JUMPI PUSH1 0x0 CALLDATASIZE PUSH1 0x3 NOT ADD SLT PUSH2 0x122 JUMPI PUSH1 0x20 PUSH1 0x7 SLOAD PUSH1 0x40 MLOAD SWAP1 DUP2 MSTORE RETURN JUMPDEST CALLVALUE PUSH2 0x122 JUMPI PUSH1 0x60 CALLDATASIZE PUSH1 0x3 NOT ADD SLT PUSH2 0x122 JUMPI PUSH1 0x1 PUSH1 0x1 PUSH1 0x40 SHL SUB PUSH1 0x4 CALLDATALOAD DUP2 DUP2 GT PUSH2 0x122 JUMPI PUSH2 0x194 SWAP1 CALLDATASIZE SWAP1 PUSH1 0x4 ADD PUSH2 0x11A3 JUMP JUMPDEST SWAP1 PUSH1 0x24 CALLDATALOAD SWAP2 DUP2 DUP4 GT PUSH2 0x122 JUMPI PUSH2 0x1B1 PUSH2 0x120 SWAP4 CALLDATASIZE SWAP1 PUSH1 0x4 ADD PUSH2 0x11A3 JUMP JUMPDEST SWAP2 PUSH1 0x40 MLOAD PUSH2 0x1E0 PUSH1 0xFF DUP5 MLOAD SWAP3 PUSH1 0x20 DUP2 DUP2 DUP9 ADD SWAP6 PUSH2 0x1CF DUP2 DUP4 DUP10 PUSH2 0x11EA JUMP JUMPDEST DUP2 ADD PUSH1 0x3 DUP2 MSTORE SUB ADD SWAP1 KECCAK256 SLOAD AND PUSH2 0x1633 JUMP JUMPDEST PUSH1 0x40 MLOAD PUSH1 0x20 DUP2 DUP6 MLOAD PUSH2 0x1F3 DUP2 DUP4 DUP8 PUSH2 0x11EA JUMP JUMPDEST DUP2 ADD PUSH1 0x0 DUP2 MSTORE SUB ADD SWAP1 KECCAK256 PUSH1 0x40 MLOAD PUSH2 0x209 DUP2 PUSH2 0x1130 JUMP JUMPDEST PUSH2 0x212 DUP3 PUSH2 0x1247 JUMP JUMPDEST DUP2 MSTORE PUSH2 0x220 PUSH1 0x1 DUP4 ADD PUSH2 0x1247 JUMP JUMPDEST PUSH1 0x20 DUP3 ADD MSTORE PUSH2 0x231 PUSH1 0x2 DUP4 ADD PUSH2 0x1247 JUMP JUMPDEST PUSH1 0x40 DUP3 ADD MSTORE PUSH2 0x242 PUSH1 0x3 DUP4 ADD PUSH2 0x1247 JUMP JUMPDEST PUSH1 0x60 DUP3 ADD MSTORE PUSH1 0x4 DUP3 ADD SLOAD PUSH1 0x80 DUP3 ADD MSTORE PUSH1 0x5 DUP3 ADD SLOAD PUSH1 0xA0 DUP3 ADD MSTORE PUSH2 0x267 PUSH1 0x6 DUP4 ADD PUSH2 0x1247 JUMP JUMPDEST PUSH1 0xC0 DUP3 ADD MSTORE PUSH1 0x7 DUP3 ADD SLOAD PUSH1 0x1 PUSH1 0x1 PUSH1 0xA0 SHL SUB AND PUSH1 0xE0 DUP3 ADD MSTORE PUSH1 0x8 DUP3 ADD SLOAD PUSH2 0x100 DUP3 ADD DUP2 SWAP1 MSTORE PUSH1 0x9 SWAP1 SWAP3 ADD SLOAD PUSH1 0xFF AND ISZERO ISZERO SWAP7 ADD DUP7 SWAP1 MSTORE DUP6 PUSH2 0x542 JUMPI JUMPDEST POP PUSH1 0x20 PUSH2 0x2BA SWAP2 PUSH1 0x40 MLOAD DUP1 SWAP4 DUP2 SWAP3 DUP8 MLOAD SWAP3 DUP4 SWAP2 PUSH2 0x11EA JUMP JUMPDEST DUP2 ADD PUSH1 0x2 DUP2 MSTORE SUB ADD SWAP1 KECCAK256 PUSH1 0x40 MLOAD SWAP2 PUSH1 0xC0 DUP4 ADD SWAP1 DUP4 DUP3 LT SWAP1 DUP3 GT OR PUSH2 0x52C JUMPI PUSH1 0x40 MSTORE DUP3 DUP3 MSTORE CALLER PUSH1 0x20 DUP4 ADD MSTORE DUP4 PUSH1 0x40 DUP4 ADD MSTORE TIMESTAMP PUSH1 0x60 DUP4 ADD MSTORE DUP5 ISZERO ISZERO PUSH1 0x80 DUP4 ADD MSTORE PUSH1 0x44 CALLDATALOAD PUSH1 0xA0 DUP4 ADD MSTORE DUP1 SLOAD PUSH1 0x1 PUSH1 0x40 SHL DUP2 LT ISZERO PUSH2 0x52C JUMPI PUSH2 0x31D SWAP2 PUSH1 0x1 DUP3 ADD DUP2 SSTORE PUSH2 0x1479 JUMP JUMPDEST SWAP2 SWAP1 SWAP2 PUSH2 0x516 JUMPI PUSH32 0xB34C950890FBAF889A30E5EFA16964C43FBBE0C06BF6432A9ADC92B5A659DF52 SWAP3 PUSH2 0x4D8 SWAP3 PUSH1 0x5 PUSH1 0xA0 DUP5 PUSH2 0x35D PUSH2 0x4BE SWAP7 MLOAD DUP6 PUSH2 0x14F5 JUMP JUMPDEST PUSH1 0x1 DUP5 ADD PUSH1 0x1 DUP1 DUP5 SHL SUB PUSH1 0x20 DUP4 ADD MLOAD AND PUSH12 0xFFFFFFFFFFFFFFFFFFFFFFFF DUP5 SHL DUP3 SLOAD AND OR SWAP1 SSTORE PUSH2 0x393 PUSH1 0x40 DUP3 ADD MLOAD PUSH1 0x2 DUP7 ADD PUSH2 0x14F5 JUMP JUMPDEST PUSH1 0x60 DUP2 ADD MLOAD PUSH1 0x3 DUP6 ADD SSTORE PUSH2 0x3BC PUSH1 0x80 DUP3 ADD MLOAD ISZERO ISZERO PUSH1 0x4 DUP7 ADD SWAP1 PUSH1 0xFF DUP1 NOT DUP4 SLOAD AND SWAP2 ISZERO ISZERO AND OR SWAP1 SSTORE JUMP JUMPDEST ADD MLOAD SWAP2 ADD SSTORE PUSH2 0x3CC PUSH1 0x7 SLOAD PUSH2 0x1604 JUMP JUMPDEST PUSH1 0x7 SSTORE DUP6 ISZERO PUSH2 0x4EF JUMPI PUSH2 0x4B9 PUSH1 0x40 MLOAD PUSH2 0x3E4 DUP2 PUSH2 0x114C JUMP JUMPDEST PUSH1 0x9 DUP2 MSTORE PUSH9 0x41555448454E544943 PUSH1 0xB8 SHL PUSH1 0x20 DUP3 ADD MSTORE JUMPDEST PUSH2 0x490 PUSH1 0x4A PUSH2 0x40B PUSH1 0x44 CALLDATALOAD PUSH2 0x1A11 JUMP JUMPDEST SWAP3 PUSH1 0x40 MLOAD SWAP4 DUP5 SWAP2 PUSH22 0x283937B23AB1BA103B32B934B334B1B0BA34B7B71D1 PUSH1 0x55 SHL PUSH1 0x20 DUP5 ADD MSTORE PUSH2 0x445 DUP2 MLOAD DUP1 SWAP3 PUSH1 0x20 PUSH1 0x36 DUP8 ADD SWAP2 ADD PUSH2 0x11EA JUMP JUMPDEST DUP3 ADD PUSH17 0x10142932B9B837B739B2903A34B6B29D1 PUSH1 0x7D SHL PUSH1 0x36 DUP3 ADD MSTORE PUSH2 0x475 DUP3 MLOAD DUP1 SWAP4 PUSH1 0x20 PUSH1 0x47 DUP6 ADD SWAP2 ADD PUSH2 0x11EA JUMP JUMPDEST ADD PUSH3 0x6D7329 PUSH1 0xE8 SHL PUSH1 0x47 DUP3 ADD MSTORE SUB PUSH1 0x2A DUP2 ADD DUP5 MSTORE ADD DUP3 PUSH2 0x1167 JUMP JUMPDEST PUSH1 0x40 MLOAD SWAP1 PUSH2 0x49D DUP3 PUSH2 0x114C JUMP JUMPDEST PUSH1 0x8 DUP3 MSTORE PUSH8 0x1591549251925151 PUSH1 0xC2 SHL PUSH1 0x20 DUP4 ADD MSTORE DUP8 DUP5 PUSH2 0x1928 JUMP JUMPDEST PUSH2 0x1613 JUMP JUMPDEST SWAP3 PUSH1 0x40 MLOAD SWAP5 ISZERO ISZERO DUP6 MSTORE PUSH1 0x80 PUSH1 0x20 DUP7 ADD MSTORE PUSH1 0x80 DUP6 ADD SWAP1 PUSH2 0x12ED JUMP JUMPDEST SWAP3 TIMESTAMP PUSH1 0x40 DUP3 ADD MSTORE PUSH1 0x44 CALLDATALOAD PUSH1 0x60 DUP3 ADD MSTORE DUP1 CALLER SWAP5 SUB SWAP1 LOG3 STOP JUMPDEST PUSH2 0x4B9 PUSH1 0x40 MLOAD PUSH2 0x4FE DUP2 PUSH2 0x114C JUMP JUMPDEST PUSH1 0x6 DUP2 MSTORE PUSH6 0x119052531151 PUSH1 0xD2 SHL PUSH1 0x20 DUP3 ADD MSTORE PUSH2 0x3FB JUMP JUMPDEST PUSH4 0x4E487B71 PUSH1 0xE0 SHL PUSH1 0x0 MSTORE PUSH1 0x0 PUSH1 0x4 MSTORE PUSH1 0x24 PUSH1 0x0 REVERT JUMPDEST PUSH4 0x4E487B71 PUSH1 0xE0 SHL PUSH1 0x0 MSTORE PUSH1 0x41 PUSH1 0x4 MSTORE PUSH1 0x24 PUSH1 0x0 REVERT JUMPDEST ISZERO ISZERO SWAP5 POP PUSH1 0x20 PUSH2 0x2A2 JUMP JUMPDEST CALLVALUE PUSH2 0x122 JUMPI PUSH1 0x40 CALLDATASIZE PUSH1 0x3 NOT ADD SLT PUSH2 0x122 JUMPI PUSH2 0x566 PUSH2 0x1401 JUMP JUMPDEST PUSH1 0x1 PUSH1 0x1 PUSH1 0xA0 SHL SUB AND PUSH1 0x0 SWAP1 DUP2 MSTORE PUSH1 0x4 PUSH1 0x20 MSTORE PUSH1 0x40 SWAP1 KECCAK256 DUP1 SLOAD PUSH1 0x24 CALLDATALOAD SWAP1 DUP2 LT ISZERO PUSH2 0x122 JUMPI PUSH2 0x104 PUSH2 0x10A SWAP2 PUSH2 0x11E SWAP4 PUSH2 0x14CC JUMP JUMPDEST CALLVALUE PUSH2 0x122 JUMPI PUSH1 0xE0 CALLDATASIZE PUSH1 0x3 NOT ADD SLT PUSH2 0x122 JUMPI PUSH1 0x1 PUSH1 0x1 PUSH1 0x40 SHL SUB PUSH1 0x4 CALLDATALOAD DUP2 DUP2 GT PUSH2 0x122 JUMPI PUSH2 0x5CB SWAP1 CALLDATASIZE SWAP1 PUSH1 0x4 ADD PUSH2 0x11A3 JUMP JUMPDEST SWAP1 PUSH1 0x24 DUP1 CALLDATALOAD DUP3 DUP2 GT PUSH2 0x122 JUMPI PUSH2 0x5E5 SWAP1 CALLDATASIZE SWAP1 PUSH1 0x4 ADD PUSH2 0x11A3 JUMP JUMPDEST SWAP1 PUSH1 0x44 SWAP4 DUP5 CALLDATALOAD DUP5 DUP2 GT PUSH2 0x122 JUMPI PUSH2 0x600 SWAP1 CALLDATASIZE SWAP1 PUSH1 0x4 ADD PUSH2 0x11A3 JUMP JUMPDEST SWAP5 PUSH1 0x64 SWAP3 DUP4 CALLDATALOAD DUP7 DUP2 GT PUSH2 0x122 JUMPI PUSH2 0x61B SWAP1 CALLDATASIZE SWAP1 PUSH1 0x4 ADD PUSH2 0x11A3 JUMP JUMPDEST SWAP2 PUSH1 0x84 CALLDATALOAD SWAP7 PUSH1 0xA4 CALLDATALOAD SWAP1 PUSH1 0xC4 CALLDATALOAD SWAP1 DUP2 GT PUSH2 0x122 JUMPI PUSH2 0x63C SWAP1 CALLDATASIZE SWAP1 PUSH1 0x4 ADD PUSH2 0x11A3 JUMP JUMPDEST SWAP4 PUSH1 0x40 MLOAD SWAP7 DUP7 MLOAD SWAP4 PUSH1 0xFF PUSH1 0x20 SWAP10 DUP11 DUP2 DUP2 DUP13 ADD SWAP9 PUSH2 0x65A DUP2 DUP4 DUP13 PUSH2 0x11EA JUMP JUMPDEST DUP2 ADD PUSH1 0x3 DUP2 MSTORE SUB ADD SWAP1 KECCAK256 SLOAD AND PUSH2 0xA48 JUMPI DUP8 MLOAD ISZERO PUSH2 0xA08 JUMPI DUP10 MLOAD ISZERO PUSH2 0x9C8 JUMPI DUP11 ISZERO PUSH2 0x988 JUMPI DUP4 ISZERO PUSH2 0x948 JUMPI POP POP DUP7 DUP7 SWAP2 DUP12 PUSH1 0x40 MLOAD SWAP5 PUSH2 0x697 DUP7 PUSH2 0x1130 JUMP JUMPDEST DUP5 DUP7 MSTORE DUP13 DUP5 DUP8 ADD SWAP4 DUP14 DUP6 MSTORE PUSH1 0x40 DUP9 ADD SWAP4 DUP5 MSTORE PUSH1 0x60 DUP9 ADD SWAP1 DUP2 MSTORE PUSH1 0x80 DUP9 ADD SWAP2 DUP3 MSTORE PUSH1 0xA0 DUP9 ADD SWAP3 DUP4 MSTORE PUSH1 0xC0 DUP9 ADD SWAP4 DUP12 DUP6 MSTORE PUSH1 0xE0 DUP10 ADD SWAP6 CALLER DUP8 MSTORE DUP11 PUSH2 0x100 DUP12 ADD SWAP9 TIMESTAMP DUP11 MSTORE PUSH2 0x120 DUP13 ADD SWAP11 PUSH1 0x1 DUP13 MSTORE PUSH1 0x40 MLOAD DUP1 SWAP4 DUP2 SWAP3 MLOAD DUP1 SWAP3 PUSH2 0x6F5 SWAP3 PUSH2 0x11EA JUMP JUMPDEST DUP2 ADD PUSH1 0x0 DUP2 MSTORE SUB ADD SWAP1 KECCAK256 SWAP10 MLOAD PUSH2 0x70B SWAP1 DUP12 PUSH2 0x14F5 JUMP JUMPDEST MLOAD PUSH2 0x719 SWAP1 PUSH1 0x1 DUP12 ADD PUSH2 0x14F5 JUMP JUMPDEST MLOAD PUSH2 0x727 SWAP1 PUSH1 0x2 DUP11 ADD PUSH2 0x14F5 JUMP JUMPDEST MLOAD PUSH2 0x735 SWAP1 PUSH1 0x3 DUP10 ADD PUSH2 0x14F5 JUMP JUMPDEST MLOAD PUSH1 0x4 DUP8 ADD SSTORE MLOAD PUSH1 0x5 DUP7 ADD SSTORE MLOAD PUSH2 0x74F SWAP1 PUSH1 0x6 DUP7 ADD PUSH2 0x14F5 JUMP JUMPDEST PUSH1 0x7 DUP5 ADD SWAP1 PUSH1 0x1 PUSH1 0xA0 SHL PUSH1 0x1 SWAP1 SUB SWAP1 MLOAD AND PUSH12 0xFFFFFFFFFFFFFFFFFFFFFFFF PUSH1 0xA0 SHL DUP3 SLOAD AND OR SWAP1 SSTORE MLOAD PUSH1 0x8 DUP4 ADD SSTORE MLOAD ISZERO ISZERO SWAP1 PUSH1 0x9 ADD SWAP1 PUSH2 0x799 SWAP2 SWAP1 PUSH1 0xFF DUP1 NOT DUP4 SLOAD AND SWAP2 ISZERO ISZERO AND OR SWAP1 SSTORE JUMP JUMPDEST DUP5 PUSH1 0x40 MLOAD DUP1 DUP1 SWAP4 DUP8 MLOAD DUP1 SWAP3 PUSH2 0x7AD SWAP3 PUSH2 0x11EA JUMP JUMPDEST DUP2 ADD PUSH1 0x3 DUP2 MSTORE SUB ADD SWAP1 KECCAK256 PUSH1 0xFF NOT DUP2 SLOAD AND PUSH1 0x1 OR SWAP1 SSTORE PUSH1 0x5 SLOAD PUSH1 0x1 PUSH1 0x40 SHL SWAP1 DUP2 DUP2 LT ISZERO PUSH2 0x91E JUMPI DUP1 PUSH1 0x1 PUSH2 0x7E3 SWAP3 ADD PUSH1 0x5 SSTORE PUSH2 0x1495 JUMP JUMPDEST PUSH2 0x933 JUMPI DUP5 PUSH2 0x7F1 SWAP2 PUSH2 0x14F5 JUMP JUMPDEST CALLER PUSH1 0x0 MSTORE PUSH1 0x4 DUP6 MSTORE PUSH1 0x40 PUSH1 0x0 KECCAK256 DUP1 SLOAD SWAP2 DUP3 LT ISZERO PUSH2 0x91E JUMPI SWAP1 PUSH2 0x818 SWAP2 PUSH1 0x1 DUP3 ADD DUP2 SSTORE PUSH2 0x14CC JUMP JUMPDEST SWAP2 SWAP1 SWAP2 PUSH2 0x90A JUMPI POP SWAP3 PUSH2 0x8D6 DUP4 PUSH2 0x4B9 PUSH2 0x905 SWAP5 PUSH2 0x85B PUSH32 0x8A0428D64A9E01B41EF7E98447F32703F6BB925BF61D85E854658BF1DD6C6358 SWAP10 SWAP8 PUSH2 0x8EB SWAP10 PUSH2 0x14F5 JUMP JUMPDEST PUSH2 0x866 PUSH1 0x6 SLOAD PUSH2 0x1604 JUMP JUMPDEST PUSH1 0x6 SSTORE PUSH1 0x40 MLOAD PUSH20 0x283937B23AB1BA103932B3B4B9BA32B932B21D1 PUSH1 0x65 SHL DUP7 DUP3 ADD MSTORE PUSH2 0x8B0 PUSH1 0x34 DUP3 DUP11 MLOAD PUSH2 0x8A0 DUP2 DUP14 DUP13 DUP7 DUP7 ADD SWAP2 ADD PUSH2 0x11EA JUMP JUMPDEST DUP2 ADD SUB PUSH1 0x14 DUP2 ADD DUP5 MSTORE ADD DUP3 PUSH2 0x1167 JUMP JUMPDEST PUSH1 0x40 MLOAD SWAP2 PUSH2 0x8BD DUP4 PUSH2 0x114C JUMP JUMPDEST PUSH1 0x7 DUP4 MSTORE PUSH7 0x10D49150551151 PUSH1 0xCA SHL DUP8 DUP5 ADD MSTORE DUP5 PUSH2 0x1928 JUMP JUMPDEST SWAP6 PUSH1 0x40 MLOAD SWAP5 DUP6 SWAP5 PUSH1 0x80 DUP7 MSTORE PUSH1 0x80 DUP7 ADD SWAP1 PUSH2 0x12ED JUMP JUMPDEST SWAP2 TIMESTAMP SWAP1 DUP6 ADD MSTORE PUSH1 0x40 DUP5 ADD MSTORE DUP3 DUP2 SUB PUSH1 0x60 DUP5 ADD MSTORE CALLER SWAP7 PUSH2 0x12ED JUMP JUMPDEST SUB SWAP1 LOG3 STOP JUMPDEST PUSH4 0x4E487B71 PUSH1 0xE0 SHL PUSH1 0x0 MSTORE PUSH1 0x0 PUSH1 0x4 MSTORE PUSH1 0x0 REVERT JUMPDEST DUP3 PUSH4 0x4E487B71 PUSH1 0xE0 SHL PUSH1 0x0 MSTORE PUSH1 0x41 PUSH1 0x4 MSTORE PUSH1 0x0 REVERT JUMPDEST DUP3 PUSH4 0x4E487B71 PUSH1 0xE0 SHL PUSH1 0x0 MSTORE PUSH1 0x0 PUSH1 0x4 MSTORE PUSH1 0x0 REVERT JUMPDEST PUSH32 0x5175616E74697479206D7573742062652067726561746572207468616E203000 DUP10 SWAP2 PUSH1 0x1F DUP9 PUSH1 0x40 MLOAD SWAP5 PUSH3 0x461BCD PUSH1 0xE5 SHL DUP7 MSTORE PUSH1 0x4 DUP7 ADD MSTORE DUP5 ADD MSTORE DUP3 ADD MSTORE REVERT JUMPDEST PUSH32 0x5072696365206D7573742062652067726561746572207468616E203000000000 DUP10 SWAP2 PUSH1 0x1C DUP9 PUSH1 0x40 MLOAD SWAP5 PUSH3 0x461BCD PUSH1 0xE5 SHL DUP7 MSTORE PUSH1 0x4 DUP7 ADD MSTORE DUP5 ADD MSTORE DUP3 ADD MSTORE REVERT JUMPDEST PUSH32 0x50726F64756374206E616D652063616E6E6F7420626520656D70747900000000 DUP10 SWAP2 PUSH1 0x1C DUP9 PUSH1 0x40 MLOAD SWAP5 PUSH3 0x461BCD PUSH1 0xE5 SHL DUP7 MSTORE PUSH1 0x4 DUP7 ADD MSTORE DUP5 ADD MSTORE DUP3 ADD MSTORE REVERT JUMPDEST PUSH32 0x50726F647563742049442063616E6E6F7420626520656D707479000000000000 DUP10 SWAP2 PUSH1 0x1A DUP9 PUSH1 0x40 MLOAD SWAP5 PUSH3 0x461BCD PUSH1 0xE5 SHL DUP7 MSTORE PUSH1 0x4 DUP7 ADD MSTORE DUP5 ADD MSTORE DUP3 ADD MSTORE REVERT JUMPDEST PUSH22 0x50726F6475637420616C726561647920657869737473 PUSH1 0x50 SHL DUP10 SWAP2 PUSH1 0x16 DUP9 PUSH1 0x40 MLOAD SWAP5 PUSH3 0x461BCD PUSH1 0xE5 SHL DUP7 MSTORE PUSH1 0x4 DUP7 ADD MSTORE DUP5 ADD MSTORE DUP3 ADD MSTORE REVERT JUMPDEST CALLVALUE PUSH2 0x122 JUMPI PUSH1 0x0 CALLDATASIZE PUSH1 0x3 NOT ADD SLT PUSH2 0x122 JUMPI PUSH1 0x20 PUSH1 0x6 SLOAD PUSH1 0x40 MLOAD SWAP1 DUP2 MSTORE RETURN JUMPDEST CALLVALUE PUSH2 0x122 JUMPI PUSH1 0x20 PUSH2 0xAC7 PUSH2 0xAB2 CALLDATASIZE PUSH2 0x139E JUMP JUMPDEST SWAP3 SWAP1 DUP2 PUSH1 0x40 MLOAD SWAP4 DUP3 DUP6 DUP1 SWAP5 MLOAD SWAP4 DUP5 SWAP3 ADD PUSH2 0x11EA JUMP JUMPDEST DUP2 ADD PUSH1 0x2 DUP2 MSTORE SUB ADD SWAP1 KECCAK256 DUP1 SLOAD DUP3 LT ISZERO PUSH2 0x122 JUMPI PUSH2 0xB38 SWAP2 PUSH2 0xAE7 SWAP2 PUSH2 0x1479 JUMP JUMPDEST POP PUSH2 0xAF1 DUP2 PUSH2 0x1247 JUMP JUMPDEST SWAP1 PUSH1 0x1 DUP1 PUSH1 0xA0 SHL SUB PUSH1 0x1 DUP3 ADD SLOAD AND SWAP1 PUSH2 0xB0C PUSH1 0x2 DUP3 ADD PUSH2 0x1247 JUMP JUMPDEST SWAP1 PUSH2 0xB4B PUSH1 0x3 DUP3 ADD SLOAD SWAP4 PUSH1 0x5 PUSH1 0xFF PUSH1 0x4 DUP6 ADD SLOAD AND SWAP4 ADD SLOAD SWAP4 PUSH1 0x40 MLOAD SWAP8 DUP9 SWAP8 PUSH1 0xC0 DUP10 MSTORE PUSH1 0xC0 DUP10 ADD SWAP1 PUSH2 0x12ED JUMP JUMPDEST SWAP2 PUSH1 0x20 DUP9 ADD MSTORE DUP7 DUP3 SUB PUSH1 0x40 DUP9 ADD MSTORE PUSH2 0x12ED JUMP JUMPDEST SWAP3 PUSH1 0x60 DUP6 ADD MSTORE ISZERO ISZERO PUSH1 0x80 DUP5 ADD MSTORE PUSH1 0xA0 DUP4 ADD MSTORE SUB SWAP1 RETURN JUMPDEST CALLVALUE PUSH2 0x122 JUMPI PUSH1 0x20 CALLDATASIZE PUSH1 0x3 NOT ADD SLT PUSH2 0x122 JUMPI PUSH1 0x4 CALLDATALOAD PUSH1 0x1 PUSH1 0x1 PUSH1 0x40 SHL SUB DUP2 GT PUSH2 0x122 JUMPI PUSH1 0xFF PUSH2 0xBAC PUSH1 0x20 PUSH2 0xB99 DUP2 SWAP5 CALLDATASIZE SWAP1 PUSH1 0x4 ADD PUSH2 0x11A3 JUMP JUMPDEST DUP2 PUSH1 0x40 MLOAD SWAP4 DUP3 DUP6 DUP1 SWAP5 MLOAD SWAP4 DUP5 SWAP3 ADD PUSH2 0x11EA JUMP JUMPDEST DUP2 ADD PUSH1 0x3 DUP2 MSTORE SUB ADD SWAP1 KECCAK256 SLOAD AND PUSH1 0x40 MLOAD SWAP1 ISZERO ISZERO DUP2 MSTORE RETURN JUMPDEST CALLVALUE PUSH2 0x122 JUMPI PUSH1 0x20 DUP1 PUSH1 0x3 NOT CALLDATASIZE ADD SLT PUSH2 0x122 JUMPI PUSH1 0x5 SLOAD SWAP1 PUSH1 0x4 CALLDATALOAD DUP3 DUP2 GT ISZERO PUSH2 0xCA8 JUMPI POP DUP2 JUMPDEST PUSH2 0xBEF DUP2 PUSH2 0x18FD JUMP JUMPDEST SWAP2 PUSH2 0xBFD PUSH1 0x40 MLOAD SWAP4 DUP5 PUSH2 0x1167 JUMP JUMPDEST DUP2 DUP4 MSTORE PUSH1 0x1F NOT PUSH2 0xC0C DUP4 PUSH2 0x18FD JUMP JUMPDEST ADD PUSH1 0x0 JUMPDEST DUP2 DUP2 LT PUSH2 0xC99 JUMPI POP POP POP PUSH1 0x0 NOT DUP4 DUP2 ADD SWAP4 DUP1 DUP6 GT PUSH1 0x0 JUMPDEST DUP5 DUP2 LT PUSH2 0xC3C JUMPI PUSH1 0x40 MLOAD DUP1 PUSH2 0x11E DUP9 DUP3 PUSH2 0x1417 JUMP JUMPDEST DUP2 PUSH2 0xC83 JUMPI DUP4 DUP2 DUP5 SUB ADD SWAP1 DUP8 DUP3 GT PUSH2 0xC83 JUMPI PUSH2 0xC63 PUSH2 0xC5D PUSH2 0xC7E SWAP4 PUSH2 0x1495 JUMP JUMPDEST POP PUSH2 0x1247 JUMP JUMPDEST PUSH2 0xC6D DUP3 DUP10 PUSH2 0x1914 JUMP JUMPDEST MSTORE PUSH2 0xC78 DUP2 DUP9 PUSH2 0x1914 JUMP JUMPDEST POP PUSH2 0x1604 JUMP JUMPDEST PUSH2 0xC27 JUMP JUMPDEST PUSH4 0x4E487B71 PUSH1 0xE0 SHL PUSH1 0x0 MSTORE PUSH1 0x11 PUSH1 0x4 MSTORE PUSH1 0x24 PUSH1 0x0 REVERT JUMPDEST PUSH1 0x60 DUP6 DUP3 ADD DUP5 ADD MSTORE DUP3 ADD PUSH2 0xC10 JUMP JUMPDEST PUSH2 0xBE6 JUMP JUMPDEST CALLVALUE PUSH2 0x122 JUMPI PUSH1 0x20 CALLDATASIZE PUSH1 0x3 NOT ADD SLT PUSH2 0x122 JUMPI PUSH1 0x4 CALLDATALOAD PUSH1 0x1 PUSH1 0x1 PUSH1 0x40 SHL SUB DUP2 GT PUSH2 0x122 JUMPI PUSH2 0xCE0 PUSH2 0xCE5 SWAP2 CALLDATASIZE SWAP1 PUSH1 0x4 ADD PUSH2 0x11A3 JUMP JUMPDEST PUSH2 0x1678 JUMP JUMPDEST SWAP1 PUSH2 0x11E PUSH1 0x40 MLOAD SWAP3 DUP4 SWAP3 ISZERO ISZERO DUP4 MSTORE PUSH1 0x40 PUSH1 0x20 DUP5 ADD MSTORE PUSH1 0x40 DUP4 ADD SWAP1 PUSH2 0x12ED JUMP JUMPDEST CALLVALUE PUSH2 0x122 JUMPI PUSH1 0x0 CALLDATASIZE PUSH1 0x3 NOT ADD SLT PUSH2 0x122 JUMPI PUSH1 0x0 DUP1 PUSH1 0x5 SLOAD SWAP1 JUMPDEST DUP2 DUP2 LT PUSH2 0xD49 JUMPI PUSH1 0x80 DUP4 PUSH1 0x6 SLOAD SWAP1 PUSH1 0x7 SLOAD PUSH1 0x8 SLOAD SWAP1 PUSH1 0x40 MLOAD SWAP4 DUP5 MSTORE PUSH1 0x20 DUP5 ADD MSTORE PUSH1 0x40 DUP4 ADD MSTORE PUSH1 0x60 DUP3 ADD MSTORE RETURN JUMPDEST PUSH2 0xD52 DUP2 PUSH2 0x1495 JUMP JUMPDEST POP PUSH1 0x40 MLOAD SWAP1 PUSH1 0x0 SWAP1 DUP1 SLOAD PUSH2 0xD65 DUP2 PUSH2 0x120D JUMP JUMPDEST SWAP2 PUSH1 0x1 SWAP2 DUP1 DUP4 AND SWAP1 DUP2 ISZERO PUSH2 0xDF7 JUMPI POP PUSH1 0x1 EQ PUSH2 0xDBA JUMPI JUMPDEST POP POP PUSH1 0x0 DUP3 MSTORE POP DUP2 SWAP1 SUB PUSH1 0x20 ADD SWAP1 KECCAK256 PUSH1 0x9 ADD SLOAD PUSH1 0xFF AND PUSH2 0xDA5 JUMPI JUMPDEST PUSH2 0xDA0 SWAP1 PUSH2 0x1604 JUMP JUMPDEST PUSH2 0xD1D JUMP JUMPDEST SWAP2 PUSH2 0xDB2 PUSH2 0xDA0 SWAP2 PUSH2 0x1604 JUMP JUMPDEST SWAP3 SWAP1 POP PUSH2 0xD97 JUMP JUMPDEST SWAP1 SWAP2 SWAP3 POP PUSH1 0x0 MSTORE PUSH1 0x20 SWAP1 DUP2 PUSH1 0x0 KECCAK256 SWAP1 PUSH1 0x0 SWAP2 JUMPDEST DUP5 DUP4 LT PUSH2 0xDE6 JUMPI POP POP POP SWAP1 DUP3 ADD SWAP1 POP DUP2 PUSH1 0x20 PUSH1 0xFF PUSH2 0xD7C JUMP JUMPDEST DUP1 SLOAD DUP7 DUP5 ADD MSTORE SWAP2 DUP4 ADD SWAP2 DUP2 ADD PUSH2 0xDCD JUMP JUMPDEST PUSH1 0xFF NOT AND DUP7 MSTORE POP POP POP DUP1 ISZERO ISZERO MUL DUP3 ADD SWAP1 POP DUP2 PUSH1 0x20 PUSH1 0xFF PUSH2 0xD7C JUMP JUMPDEST CALLVALUE PUSH2 0x122 JUMPI PUSH1 0x20 CALLDATASIZE PUSH1 0x3 NOT ADD SLT PUSH2 0x122 JUMPI PUSH1 0x4 CALLDATALOAD PUSH1 0x1 PUSH1 0x1 PUSH1 0x40 SHL SUB DUP2 GT PUSH2 0x122 JUMPI PUSH1 0x20 PUSH2 0xE47 PUSH2 0xE75 SWAP3 CALLDATASIZE SWAP1 PUSH1 0x4 ADD PUSH2 0x11A3 JUMP JUMPDEST PUSH1 0x40 MLOAD SWAP1 PUSH2 0xE64 PUSH1 0xFF DUP3 MLOAD SWAP4 DUP6 DUP2 DUP2 DUP7 ADD SWAP7 PUSH2 0x1CF DUP2 DUP4 DUP11 PUSH2 0x11EA JUMP JUMPDEST PUSH1 0x40 MLOAD SWAP4 DUP5 SWAP3 DUP4 SWAP3 MLOAD SWAP3 DUP4 SWAP2 PUSH2 0x11EA JUMP JUMPDEST DUP2 ADD PUSH1 0x0 DUP2 MSTORE SUB ADD SWAP1 KECCAK256 PUSH1 0x40 MLOAD PUSH2 0xE8B DUP2 PUSH2 0x1130 JUMP JUMPDEST PUSH2 0xE94 DUP3 PUSH2 0x1247 JUMP JUMPDEST DUP2 MSTORE PUSH2 0x11E PUSH2 0xEA5 PUSH1 0x1 DUP5 ADD PUSH2 0x1247 JUMP JUMPDEST SWAP2 PUSH1 0x20 DUP2 ADD SWAP3 DUP4 MSTORE PUSH2 0xEB9 PUSH1 0x2 DUP6 ADD PUSH2 0x1247 JUMP JUMPDEST SWAP4 PUSH1 0x40 DUP3 ADD SWAP5 DUP6 MSTORE PUSH2 0xECD PUSH1 0x3 DUP3 ADD PUSH2 0x1247 JUMP JUMPDEST PUSH1 0x60 DUP4 ADD SWAP1 DUP2 MSTORE PUSH1 0x4 DUP3 ADD SLOAD SWAP1 PUSH1 0x80 DUP5 ADD SWAP2 DUP3 MSTORE PUSH1 0x5 DUP4 ADD SLOAD SWAP1 PUSH1 0xA0 DUP6 ADD SWAP2 DUP3 MSTORE PUSH2 0xEFA PUSH1 0x6 DUP6 ADD PUSH2 0x1247 JUMP JUMPDEST SWAP2 DUP3 PUSH1 0xC0 DUP8 ADD MSTORE PUSH1 0x1 DUP1 PUSH1 0xA0 SHL SUB PUSH1 0x7 DUP7 ADD SLOAD AND SWAP4 DUP5 PUSH1 0xE0 DUP9 ADD MSTORE PUSH1 0xFF PUSH1 0x9 PUSH1 0x8 DUP9 ADD SLOAD SWAP8 DUP9 PUSH2 0x100 DUP12 ADD MSTORE ADD SLOAD AND ISZERO ISZERO SWAP7 DUP8 PUSH2 0x120 DUP3 ADD MSTORE MLOAD SWAP9 MLOAD SWAP10 MLOAD SWAP3 MLOAD SWAP1 MLOAD SWAP2 MLOAD SWAP3 PUSH1 0x40 MLOAD SWAP11 DUP12 SWAP11 DUP12 PUSH2 0x1312 JUMP JUMPDEST CALLVALUE PUSH2 0x122 JUMPI PUSH1 0x20 DUP1 PUSH1 0x3 NOT CALLDATASIZE ADD SLT PUSH2 0x122 JUMPI PUSH1 0x1 PUSH1 0x1 PUSH1 0xA0 SHL SUB PUSH2 0xF6D PUSH2 0x1401 JUMP JUMPDEST AND PUSH1 0x0 MSTORE PUSH1 0x4 DUP2 MSTORE PUSH1 0x40 PUSH1 0x0 KECCAK256 DUP1 SLOAD PUSH2 0xF85 DUP2 PUSH2 0x18FD JUMP JUMPDEST SWAP2 PUSH2 0xF93 PUSH1 0x40 MLOAD SWAP4 DUP5 PUSH2 0x1167 JUMP JUMPDEST DUP2 DUP4 MSTORE PUSH1 0x0 SWAP1 DUP2 MSTORE DUP4 DUP2 KECCAK256 SWAP4 DUP1 DUP5 ADD JUMPDEST DUP4 DUP4 LT PUSH2 0xFB8 JUMPI PUSH1 0x40 MLOAD DUP1 PUSH2 0x11E DUP8 DUP3 PUSH2 0x1417 JUMP JUMPDEST PUSH1 0x1 DUP3 DUP2 SWAP3 PUSH2 0xFC6 DUP10 PUSH2 0x1247 JUMP JUMPDEST DUP2 MSTORE ADD SWAP7 ADD SWAP3 ADD SWAP2 SWAP5 PUSH2 0xFA3 JUMP JUMPDEST CALLVALUE PUSH2 0x122 JUMPI PUSH1 0x20 PUSH2 0xFE7 PUSH2 0xAB2 CALLDATASIZE PUSH2 0x139E JUMP JUMPDEST DUP2 ADD PUSH1 0x1 DUP2 MSTORE SUB ADD SWAP1 KECCAK256 SWAP1 DUP2 SLOAD DUP2 LT ISZERO PUSH2 0x122 JUMPI PUSH2 0x1004 SWAP2 PUSH2 0x13CF JUMP JUMPDEST POP DUP1 SLOAD PUSH2 0x11E PUSH2 0x1016 PUSH1 0x1 DUP5 ADD PUSH2 0x1247 JUMP JUMPDEST SWAP3 PUSH2 0x1023 PUSH1 0x2 DUP3 ADD PUSH2 0x1247 JUMP JUMPDEST PUSH1 0x3 DUP3 ADD SLOAD PUSH1 0x1 PUSH1 0x1 PUSH1 0xA0 SHL SUB AND SWAP2 PUSH2 0x106D SWAP1 PUSH2 0x1042 SWAP1 PUSH1 0x4 ADD PUSH2 0x1247 JUMP JUMPDEST SWAP2 PUSH2 0x105F PUSH1 0x40 MLOAD SWAP8 DUP9 SWAP8 DUP9 MSTORE PUSH1 0xA0 PUSH1 0x20 DUP10 ADD MSTORE PUSH1 0xA0 DUP9 ADD SWAP1 PUSH2 0x12ED JUMP JUMPDEST SWAP1 DUP7 DUP3 SUB PUSH1 0x40 DUP9 ADD MSTORE PUSH2 0x12ED JUMP JUMPDEST SWAP2 PUSH1 0x60 DUP6 ADD MSTORE DUP4 DUP3 SUB PUSH1 0x80 DUP6 ADD MSTORE PUSH2 0x12ED JUMP JUMPDEST CALLVALUE PUSH2 0x122 JUMPI PUSH1 0x20 CALLDATASIZE PUSH1 0x3 NOT ADD SLT PUSH2 0x122 JUMPI PUSH1 0x4 CALLDATALOAD PUSH1 0x1 PUSH1 0x1 PUSH1 0x40 SHL SUB DUP2 GT PUSH2 0x122 JUMPI PUSH1 0x20 PUSH2 0xB99 PUSH2 0x10B5 SWAP3 CALLDATASIZE SWAP1 PUSH1 0x4 ADD PUSH2 0x11A3 JUMP JUMPDEST DUP2 ADD PUSH1 0x0 DUP2 MSTORE SUB ADD SWAP1 KECCAK256 PUSH2 0x10C8 DUP2 PUSH2 0x1247 JUMP JUMPDEST PUSH2 0x11E PUSH2 0x10D7 PUSH1 0x1 DUP5 ADD PUSH2 0x1247 JUMP JUMPDEST SWAP3 PUSH2 0x10E4 PUSH1 0x2 DUP3 ADD PUSH2 0x1247 JUMP JUMPDEST SWAP1 PUSH2 0x10F1 PUSH1 0x3 DUP3 ADD PUSH2 0x1247 JUMP JUMPDEST PUSH1 0x4 DUP3 ADD SLOAD PUSH1 0x5 DUP4 ADD SLOAD PUSH2 0x1107 PUSH1 0x6 DUP6 ADD PUSH2 0x1247 JUMP JUMPDEST SWAP2 PUSH1 0x1 DUP1 PUSH1 0xA0 SHL SUB PUSH1 0x7 DUP7 ADD SLOAD AND SWAP4 PUSH1 0xFF PUSH1 0x9 PUSH1 0x8 DUP9 ADD SLOAD SWAP8 ADD SLOAD AND SWAP7 PUSH1 0x40 MLOAD SWAP11 DUP12 SWAP11 DUP12 PUSH2 0x1312 JUMP JUMPDEST PUSH2 0x140 DUP2 ADD SWAP1 DUP2 LT PUSH1 0x1 PUSH1 0x1 PUSH1 0x40 SHL SUB DUP3 GT OR PUSH2 0x52C JUMPI PUSH1 0x40 MSTORE JUMP JUMPDEST PUSH1 0x40 DUP2 ADD SWAP1 DUP2 LT PUSH1 0x1 PUSH1 0x1 PUSH1 0x40 SHL SUB DUP3 GT OR PUSH2 0x52C JUMPI PUSH1 0x40 MSTORE JUMP JUMPDEST SWAP1 PUSH1 0x1F DUP1 NOT SWAP2 ADD AND DUP2 ADD SWAP1 DUP2 LT PUSH1 0x1 PUSH1 0x1 PUSH1 0x40 SHL SUB DUP3 GT OR PUSH2 0x52C JUMPI PUSH1 0x40 MSTORE JUMP JUMPDEST PUSH1 0x1 PUSH1 0x1 PUSH1 0x40 SHL SUB DUP2 GT PUSH2 0x52C JUMPI PUSH1 0x1F ADD PUSH1 0x1F NOT AND PUSH1 0x20 ADD SWAP1 JUMP JUMPDEST DUP2 PUSH1 0x1F DUP3 ADD SLT ISZERO PUSH2 0x122 JUMPI DUP1 CALLDATALOAD SWAP1 PUSH2 0x11BA DUP3 PUSH2 0x1188 JUMP JUMPDEST SWAP3 PUSH2 0x11C8 PUSH1 0x40 MLOAD SWAP5 DUP6 PUSH2 0x1167 JUMP JUMPDEST DUP3 DUP5 MSTORE PUSH1 0x20 DUP4 DUP4 ADD ADD GT PUSH2 0x122 JUMPI DUP2 PUSH1 0x0 SWAP3 PUSH1 0x20 DUP1 SWAP4 ADD DUP4 DUP7 ADD CALLDATACOPY DUP4 ADD ADD MSTORE SWAP1 JUMP JUMPDEST PUSH1 0x0 JUMPDEST DUP4 DUP2 LT PUSH2 0x11FD JUMPI POP POP PUSH1 0x0 SWAP2 ADD MSTORE JUMP JUMPDEST DUP2 DUP2 ADD MLOAD DUP4 DUP3 ADD MSTORE PUSH1 0x20 ADD PUSH2 0x11ED JUMP JUMPDEST SWAP1 PUSH1 0x1 DUP3 DUP2 SHR SWAP3 AND DUP1 ISZERO PUSH2 0x123D JUMPI JUMPDEST PUSH1 0x20 DUP4 LT EQ PUSH2 0x1227 JUMPI JUMP JUMPDEST PUSH4 0x4E487B71 PUSH1 0xE0 SHL PUSH1 0x0 MSTORE PUSH1 0x22 PUSH1 0x4 MSTORE PUSH1 0x24 PUSH1 0x0 REVERT JUMPDEST SWAP2 PUSH1 0x7F AND SWAP2 PUSH2 0x121C JUMP JUMPDEST SWAP1 PUSH1 0x40 MLOAD SWAP2 DUP3 PUSH1 0x0 DUP3 SLOAD SWAP3 PUSH2 0x125B DUP5 PUSH2 0x120D JUMP JUMPDEST SWAP1 DUP2 DUP5 MSTORE PUSH1 0x1 SWAP5 DUP6 DUP2 AND SWAP1 DUP2 PUSH1 0x0 EQ PUSH2 0x12CA JUMPI POP PUSH1 0x1 EQ PUSH2 0x1287 JUMPI JUMPDEST POP POP PUSH2 0x1285 SWAP3 POP SUB DUP4 PUSH2 0x1167 JUMP JUMPDEST JUMP JUMPDEST SWAP1 SWAP4 SWAP2 POP PUSH1 0x0 MSTORE PUSH1 0x20 SWAP1 DUP2 PUSH1 0x0 KECCAK256 SWAP4 PUSH1 0x0 SWAP2 JUMPDEST DUP2 DUP4 LT PUSH2 0x12B2 JUMPI POP POP PUSH2 0x1285 SWAP4 POP DUP3 ADD ADD CODESIZE DUP1 PUSH2 0x1277 JUMP JUMPDEST DUP6 SLOAD DUP9 DUP5 ADD DUP6 ADD MSTORE SWAP5 DUP6 ADD SWAP5 DUP8 SWAP5 POP SWAP2 DUP4 ADD SWAP2 PUSH2 0x129A JUMP JUMPDEST SWAP2 POP POP PUSH2 0x1285 SWAP5 POP PUSH1 0x20 SWAP3 POP PUSH1 0xFF NOT AND DUP3 DUP5 ADD MSTORE ISZERO ISZERO PUSH1 0x5 SHL DUP3 ADD ADD CODESIZE DUP1 PUSH2 0x1277 JUMP JUMPDEST SWAP1 PUSH1 0x20 SWAP2 PUSH2 0x1306 DUP2 MLOAD DUP1 SWAP3 DUP2 DUP6 MSTORE DUP6 DUP1 DUP7 ADD SWAP2 ADD PUSH2 0x11EA JUMP JUMPDEST PUSH1 0x1F ADD PUSH1 0x1F NOT AND ADD ADD SWAP1 JUMP JUMPDEST SWAP9 SWAP6 SWAP2 SWAP4 PUSH2 0x135B PUSH2 0x120 SWAP10 SWAP13 SWAP12 SWAP9 SWAP5 PUSH2 0x134D DUP13 PUSH2 0x1381 SWAP10 SWAP9 PUSH2 0x133F PUSH2 0x1369 SWAP8 PUSH2 0x140 DUP1 DUP6 MSTORE DUP5 ADD SWAP1 PUSH2 0x12ED JUMP JUMPDEST SWAP2 PUSH1 0x20 DUP2 DUP5 SUB SWAP2 ADD MSTORE PUSH2 0x12ED JUMP JUMPDEST DUP13 DUP2 SUB PUSH1 0x40 DUP15 ADD MSTORE SWAP1 PUSH2 0x12ED JUMP JUMPDEST SWAP1 DUP11 DUP3 SUB PUSH1 0x60 DUP13 ADD MSTORE PUSH2 0x12ED JUMP JUMPDEST SWAP3 PUSH1 0x80 DUP10 ADD MSTORE PUSH1 0xA0 DUP9 ADD MSTORE DUP7 DUP3 SUB PUSH1 0xC0 DUP9 ADD MSTORE PUSH2 0x12ED JUMP JUMPDEST PUSH1 0x1 PUSH1 0x1 PUSH1 0xA0 SHL SUB SWAP1 SWAP7 AND PUSH1 0xE0 DUP6 ADD MSTORE PUSH2 0x100 DUP5 ADD MSTORE ISZERO ISZERO SWAP2 ADD MSTORE JUMP JUMPDEST PUSH1 0x40 PUSH1 0x3 NOT DUP3 ADD SLT PUSH2 0x122 JUMPI PUSH1 0x4 CALLDATALOAD SWAP1 PUSH1 0x1 PUSH1 0x1 PUSH1 0x40 SHL SUB DUP3 GT PUSH2 0x122 JUMPI PUSH2 0x13C8 SWAP2 PUSH1 0x4 ADD PUSH2 0x11A3 JUMP JUMPDEST SWAP1 PUSH1 0x24 CALLDATALOAD SWAP1 JUMP JUMPDEST DUP1 SLOAD DUP3 LT ISZERO PUSH2 0x13EB JUMPI PUSH1 0x0 MSTORE PUSH1 0x5 PUSH1 0x20 PUSH1 0x0 KECCAK256 SWAP2 MUL ADD SWAP1 PUSH1 0x0 SWAP1 JUMP JUMPDEST PUSH4 0x4E487B71 PUSH1 0xE0 SHL PUSH1 0x0 MSTORE PUSH1 0x32 PUSH1 0x4 MSTORE PUSH1 0x24 PUSH1 0x0 REVERT JUMPDEST PUSH1 0x4 CALLDATALOAD SWAP1 PUSH1 0x1 PUSH1 0x1 PUSH1 0xA0 SHL SUB DUP3 AND DUP3 SUB PUSH2 0x122 JUMPI JUMP JUMPDEST PUSH1 0x20 DUP1 DUP3 ADD SWAP1 DUP1 DUP4 MSTORE DUP4 MLOAD DUP1 SWAP3 MSTORE PUSH1 0x40 DUP4 ADD SWAP3 DUP2 PUSH1 0x40 DUP5 PUSH1 0x5 SHL DUP4 ADD ADD SWAP6 ADD SWAP4 PUSH1 0x0 SWAP2 JUMPDEST DUP5 DUP4 LT PUSH2 0x144B JUMPI POP POP POP POP POP POP SWAP1 JUMP JUMPDEST SWAP1 SWAP2 SWAP3 SWAP4 SWAP5 SWAP6 DUP5 DUP1 PUSH2 0x1469 PUSH1 0x1 SWAP4 PUSH1 0x3F NOT DUP7 DUP3 SUB ADD DUP8 MSTORE DUP11 MLOAD PUSH2 0x12ED JUMP JUMPDEST SWAP9 ADD SWAP4 ADD SWAP4 ADD SWAP2 SWAP5 SWAP4 SWAP3 SWAP1 PUSH2 0x143B JUMP JUMPDEST DUP1 SLOAD DUP3 LT ISZERO PUSH2 0x13EB JUMPI PUSH1 0x0 MSTORE PUSH1 0x6 PUSH1 0x20 PUSH1 0x0 KECCAK256 SWAP2 MUL ADD SWAP1 PUSH1 0x0 SWAP1 JUMP JUMPDEST PUSH1 0x5 SLOAD DUP2 LT ISZERO PUSH2 0x13EB JUMPI PUSH1 0x5 PUSH1 0x0 MSTORE PUSH32 0x36B6384B5ECA791C62761152D0C79BB0604C104A5FB6F4EB0703F3154BB3DB0 ADD SWAP1 PUSH1 0x0 SWAP1 JUMP JUMPDEST DUP1 SLOAD DUP3 LT ISZERO PUSH2 0x13EB JUMPI PUSH1 0x0 MSTORE PUSH1 0x20 PUSH1 0x0 KECCAK256 ADD SWAP1 PUSH1 0x0 SWAP1 JUMP JUMPDEST SWAP1 PUSH2 0x516 JUMPI PUSH2 0x14F2 SWAP1 PUSH2 0x1247 JUMP JUMPDEST SWAP1 JUMP JUMPDEST SWAP2 SWAP1 SWAP2 DUP3 MLOAD PUSH1 0x1 PUSH1 0x1 PUSH1 0x40 SHL SUB DUP2 GT PUSH2 0x52C JUMPI PUSH2 0x1512 DUP3 SLOAD PUSH2 0x120D JUMP JUMPDEST PUSH1 0x1F DUP2 GT PUSH2 0x15BC JUMPI JUMPDEST POP PUSH1 0x20 DUP1 PUSH1 0x1F DUP4 GT PUSH1 0x1 EQ PUSH2 0x1558 JUMPI POP DUP2 SWAP3 SWAP4 SWAP5 PUSH1 0x0 SWAP3 PUSH2 0x154D JUMPI JUMPDEST POP POP DUP2 PUSH1 0x1 SHL SWAP2 PUSH1 0x0 NOT SWAP1 PUSH1 0x3 SHL SHR NOT AND OR SWAP1 SSTORE JUMP JUMPDEST ADD MLOAD SWAP1 POP CODESIZE DUP1 PUSH2 0x1537 JUMP JUMPDEST SWAP1 PUSH1 0x1F NOT DUP4 AND SWAP6 DUP5 PUSH1 0x0 MSTORE DUP3 PUSH1 0x0 KECCAK256 SWAP3 PUSH1 0x0 SWAP1 JUMPDEST DUP9 DUP3 LT PUSH2 0x15A4 JUMPI POP POP DUP4 PUSH1 0x1 SWAP6 SWAP7 SWAP8 LT PUSH2 0x158B JUMPI JUMPDEST POP POP POP DUP2 SHL ADD SWAP1 SSTORE JUMP JUMPDEST ADD MLOAD PUSH1 0x0 NOT PUSH1 0xF8 DUP5 PUSH1 0x3 SHL AND SHR NOT AND SWAP1 SSTORE CODESIZE DUP1 DUP1 PUSH2 0x1581 JUMP JUMPDEST DUP1 PUSH1 0x1 DUP6 SWAP7 DUP3 SWAP5 SWAP7 DUP7 ADD MLOAD DUP2 SSTORE ADD SWAP6 ADD SWAP4 ADD SWAP1 PUSH2 0x156C JUMP JUMPDEST PUSH1 0x0 DUP4 DUP2 MSTORE PUSH1 0x20 DUP2 KECCAK256 PUSH1 0x1F DUP5 ADD PUSH1 0x5 SHR DUP2 ADD SWAP3 PUSH1 0x20 DUP6 LT PUSH2 0x15FA JUMPI JUMPDEST PUSH1 0x1F ADD PUSH1 0x5 SHR ADD SWAP2 JUMPDEST DUP3 DUP2 LT PUSH2 0x15EF JUMPI POP POP PUSH2 0x151B JUMP JUMPDEST DUP2 DUP2 SSTORE PUSH1 0x1 ADD PUSH2 0x15E1 JUMP JUMPDEST SWAP1 SWAP3 POP DUP3 SWAP1 PUSH2 0x15D8 JUMP JUMPDEST PUSH1 0x0 NOT DUP2 EQ PUSH2 0xC83 JUMPI PUSH1 0x1 ADD SWAP1 JUMP JUMPDEST PUSH2 0x162B SWAP1 PUSH1 0x20 PUSH1 0x40 MLOAD SWAP3 DUP3 DUP5 DUP1 SWAP5 MLOAD SWAP4 DUP5 SWAP3 ADD PUSH2 0x11EA JUMP JUMPDEST DUP2 ADD SUB SWAP1 KECCAK256 SWAP1 JUMP JUMPDEST ISZERO PUSH2 0x163A JUMPI JUMP JUMPDEST PUSH1 0x40 MLOAD PUSH3 0x461BCD PUSH1 0xE5 SHL DUP2 MSTORE PUSH1 0x20 PUSH1 0x4 DUP3 ADD MSTORE PUSH1 0x16 PUSH1 0x24 DUP3 ADD MSTORE PUSH22 0x141C9BD91D58DD08191BD95CC81B9BDD08195E1A5CDD PUSH1 0x52 SHL PUSH1 0x44 DUP3 ADD MSTORE PUSH1 0x64 SWAP1 REVERT JUMPDEST SWAP1 PUSH1 0x40 SWAP2 DUP3 MLOAD DUP2 MLOAD PUSH1 0xFF PUSH1 0x20 SWAP3 DUP4 DUP2 DUP2 DUP8 ADD SWAP5 PUSH2 0x1696 DUP2 DUP4 DUP9 PUSH2 0x11EA JUMP JUMPDEST DUP2 ADD PUSH1 0x3 DUP2 MSTORE SUB ADD SWAP1 KECCAK256 SLOAD AND ISZERO PUSH2 0x18C1 JUMPI DUP5 MLOAD DUP3 DUP2 DUP6 MLOAD PUSH2 0x16B8 DUP2 DUP4 DUP8 PUSH2 0x11EA JUMP JUMPDEST DUP2 ADD PUSH1 0x0 DUP2 MSTORE SUB ADD SWAP1 KECCAK256 SWAP1 DUP6 MLOAD PUSH2 0x16CE DUP2 PUSH2 0x1130 JUMP JUMPDEST PUSH2 0x16D7 DUP4 PUSH2 0x1247 JUMP JUMPDEST DUP2 MSTORE PUSH2 0x16E5 PUSH1 0x1 DUP5 ADD PUSH2 0x1247 JUMP JUMPDEST DUP5 DUP3 ADD MSTORE PUSH2 0x16F5 PUSH1 0x2 DUP5 ADD PUSH2 0x1247 JUMP JUMPDEST DUP8 DUP3 ADD MSTORE PUSH2 0x1705 PUSH1 0x3 DUP5 ADD PUSH2 0x1247 JUMP JUMPDEST PUSH1 0x60 DUP3 ADD MSTORE PUSH1 0x4 DUP4 ADD SLOAD PUSH1 0x80 DUP3 ADD MSTORE PUSH1 0x5 DUP4 ADD SLOAD PUSH1 0xA0 DUP3 ADD MSTORE PUSH2 0x172A PUSH1 0x6 DUP5 ADD PUSH2 0x1247 JUMP JUMPDEST PUSH1 0xC0 DUP3 ADD MSTORE PUSH1 0x1 DUP1 PUSH1 0xA0 SHL SUB PUSH1 0x7 DUP5 ADD SLOAD AND PUSH1 0xE0 DUP3 ADD MSTORE PUSH1 0xFF PUSH1 0x9 PUSH1 0x8 DUP6 ADD SLOAD SWAP5 PUSH2 0x100 DUP5 ADD SWAP6 DUP7 MSTORE ADD SLOAD AND ISZERO SWAP1 PUSH2 0x120 DUP3 ISZERO SWAP2 ADD MSTORE PUSH2 0x1884 JUMPI SWAP5 DUP3 PUSH2 0x1858 PUSH2 0x187E SWAP6 SWAP4 PUSH2 0x17D2 PUSH2 0x17CC PUSH2 0x17BC PUSH1 0x69 SWAP9 PUSH6 0x103BB4BA341 PUSH1 0xD5 SHL SWAP13 PUSH2 0x17AB DUP10 MLOAD DUP4 DUP2 DUP14 MLOAD PUSH2 0x1799 DUP2 DUP4 DUP9 PUSH2 0x11EA JUMP JUMPDEST DUP2 ADD PUSH1 0x2 DUP2 MSTORE SUB ADD SWAP1 KECCAK256 SLOAD SWAP7 MLOAD PUSH2 0x1A11 JUMP JUMPDEST SWAP10 DUP10 MLOAD SWAP4 DUP5 SWAP3 DUP4 SWAP3 MLOAD SWAP3 DUP4 SWAP2 PUSH2 0x11EA JUMP JUMPDEST DUP2 ADD PUSH1 0x1 DUP2 MSTORE SUB ADD SWAP1 KECCAK256 SLOAD PUSH2 0x1A11 JUMP JUMPDEST SWAP2 PUSH2 0x1A11 JUMP JUMPDEST SWAP4 DUP1 MLOAD SWAP10 DUP11 SWAP7 PUSH32 0x41757468656E7469632070726F647563742072656769737465726564206F6E20 DUP7 DUP10 ADD MSTORE PUSH2 0x180F DUP2 MLOAD DUP1 SWAP3 DUP9 DUP7 DUP13 ADD SWAP2 ADD PUSH2 0x11EA JUMP JUMPDEST DUP8 ADD SWAP2 DUP3 ADD MSTORE PUSH2 0x1828 DUP3 MLOAD DUP1 SWAP4 DUP7 PUSH1 0x46 DUP6 ADD SWAP2 ADD PUSH2 0x11EA JUMP JUMPDEST ADD SWAP2 PUSH21 0x103A3930B1B5B4B7339032BB32B73A399030B7321 PUSH1 0x5D SHL PUSH1 0x46 DUP5 ADD MSTORE DUP4 MLOAD SWAP4 DUP5 SWAP2 PUSH1 0x5B DUP6 ADD SWAP2 ADD PUSH2 0x11EA JUMP JUMPDEST ADD PUSH14 0x20766572696669636174696F6E73 PUSH1 0x90 SHL PUSH1 0x5B DUP3 ADD MSTORE SUB PUSH1 0x49 DUP2 ADD DUP6 MSTORE ADD DUP4 PUSH2 0x1167 JUMP JUMPDEST PUSH1 0x1 SWAP2 SWAP1 JUMP JUMPDEST POP POP SWAP1 POP PUSH32 0x50726F6475637420686173206265656E20646561637469766174656400000000 PUSH1 0x0 SWAP4 MLOAD SWAP2 PUSH2 0x18B7 DUP4 PUSH2 0x114C JUMP JUMPDEST PUSH1 0x1C DUP4 MSTORE DUP3 ADD MSTORE SWAP1 JUMP JUMPDEST POP SWAP1 POP PUSH32 0x50726F64756374206E6F7420666F756E64206F6E20626C6F636B636861696E00 PUSH1 0x0 SWAP4 MLOAD SWAP2 PUSH2 0x18F3 DUP4 PUSH2 0x114C JUMP JUMPDEST PUSH1 0x1F DUP4 MSTORE DUP3 ADD MSTORE SWAP1 JUMP JUMPDEST PUSH1 0x1 PUSH1 0x1 PUSH1 0x40 SHL SUB DUP2 GT PUSH2 0x52C JUMPI PUSH1 0x5 SHL PUSH1 0x20 ADD SWAP1 JUMP JUMPDEST DUP1 MLOAD DUP3 LT ISZERO PUSH2 0x13EB JUMPI PUSH1 0x20 SWAP2 PUSH1 0x5 SHL ADD ADD SWAP1 JUMP JUMPDEST PUSH1 0x20 PUSH2 0x1945 SWAP2 SWAP5 SWAP3 SWAP4 SWAP5 DUP2 PUSH1 0x40 MLOAD SWAP4 DUP3 DUP6 DUP1 SWAP5 MLOAD SWAP4 DUP5 SWAP3 ADD PUSH2 0x11EA JUMP JUMPDEST DUP2 ADD PUSH1 0x1 DUP2 MSTORE SUB ADD SWAP1 KECCAK256 SWAP1 PUSH1 0x40 MLOAD SWAP2 PUSH1 0xA0 DUP4 ADD DUP4 DUP2 LT PUSH1 0x1 PUSH1 0x1 PUSH1 0x40 SHL SUB DUP3 GT OR PUSH2 0x52C JUMPI PUSH1 0x40 MSTORE TIMESTAMP DUP4 MSTORE PUSH1 0x20 DUP4 ADD SWAP4 DUP5 MSTORE PUSH1 0x40 DUP4 ADD SWAP5 DUP6 MSTORE PUSH1 0x60 DUP4 ADD SWAP1 CALLER DUP3 MSTORE PUSH1 0x80 DUP5 ADD SWAP3 DUP4 MSTORE DUP1 SLOAD PUSH1 0x1 PUSH1 0x40 SHL DUP2 LT ISZERO PUSH2 0x52C JUMPI PUSH2 0x19AA SWAP2 PUSH1 0x1 DUP3 ADD DUP2 SSTORE PUSH2 0x13CF JUMP JUMPDEST SWAP5 SWAP1 SWAP5 PUSH2 0x516 JUMPI PUSH2 0x1A01 SWAP6 PUSH2 0x19CC PUSH2 0x19D6 SWAP3 PUSH1 0x4 SWAP7 MLOAD DUP9 SSTORE MLOAD PUSH1 0x1 DUP9 ADD PUSH2 0x14F5 JUMP JUMPDEST MLOAD PUSH1 0x2 DUP7 ADD PUSH2 0x14F5 JUMP JUMPDEST MLOAD PUSH1 0x3 DUP5 ADD DUP1 SLOAD PUSH1 0x1 PUSH1 0x1 PUSH1 0xA0 SHL SUB NOT AND PUSH1 0x1 PUSH1 0x1 PUSH1 0xA0 SHL SUB SWAP3 SWAP1 SWAP3 AND SWAP2 SWAP1 SWAP2 OR SWAP1 SSTORE MLOAD SWAP2 ADD PUSH2 0x14F5 JUMP JUMPDEST PUSH2 0x1A0C PUSH1 0x8 SLOAD PUSH2 0x1604 JUMP JUMPDEST PUSH1 0x8 SSTORE JUMP JUMPDEST DUP1 ISZERO PUSH2 0x1ABA JUMPI DUP1 DUP2 PUSH1 0x0 SWAP3 JUMPDEST PUSH2 0x1AA4 JUMPI POP PUSH2 0x1A2B DUP3 PUSH2 0x1188 JUMP JUMPDEST SWAP2 PUSH2 0x1A39 PUSH1 0x40 MLOAD SWAP4 DUP5 PUSH2 0x1167 JUMP JUMPDEST DUP1 DUP4 MSTORE PUSH1 0x1F NOT PUSH2 0x1A48 DUP3 PUSH2 0x1188 JUMP JUMPDEST ADD SWAP1 DUP3 PUSH1 0x20 SWAP3 CALLDATASIZE DUP5 DUP8 ADD CALLDATACOPY JUMPDEST PUSH2 0x1A5E JUMPI POP POP POP SWAP1 JUMP JUMPDEST PUSH1 0x0 NOT DUP2 ADD SWAP1 DUP2 GT PUSH2 0xC83 JUMPI DUP1 SWAP3 PUSH1 0xA SWAP2 PUSH1 0x30 DUP4 DUP4 MOD DUP2 ADD DUP1 SWAP2 GT PUSH2 0xC83 JUMPI DUP7 MLOAD DUP3 LT ISZERO PUSH2 0x13EB JUMPI PUSH1 0xF8 SHL PUSH1 0x1 PUSH1 0x1 PUSH1 0xF8 SHL SUB NOT AND PUSH1 0x0 BYTE SWAP1 DUP7 ADD DUP5 ADD MSTORE8 DIV SWAP2 DUP3 PUSH2 0x1A54 JUMP JUMPDEST SWAP1 SWAP2 PUSH2 0x1AB1 PUSH1 0xA SWAP2 PUSH2 0x1604 JUMP JUMPDEST SWAP3 SWAP2 DIV DUP1 PUSH2 0x1A1D JUMP JUMPDEST POP PUSH1 0x40 MLOAD PUSH2 0x1AC7 DUP2 PUSH2 0x114C JUMP JUMPDEST PUSH1 0x1 DUP2 MSTORE PUSH1 0x3 PUSH1 0xFC SHL PUSH1 0x20 DUP3 ADD MSTORE SWAP1 JUMP INVALID LOG2 PUSH5 0x6970667358 0x22 SLT KECCAK256 0x27 0x2C SELFDESTRUCT CALLER 0xAA 0xBA DELEGATECALL 0x5C PUSH11 0x5B5521BD362904D4242148 EQ STATICCALL 0xB9 0xFB 0x5E 0xB4 0xB3 0xA5 PUSH32 0x80C6B464736F6C63430008140033000000000000000000000000000000000000 "},"methodIdentifiers":{"allProductIds(uint256)":"dde1bbcf","getAnalyticsData()":"69be1fec","getProductCount()":"4a348da9","getProductDetails(string)":"198c59b0","getProductsByOwner(address)":"0fecef48","getRecentProducts(uint256)":"797c0275","ownerProducts(address,uint256)":"a7800164","productExists(string)":"8addc051","productHistory(string,uint256)":"01970b11","productVerifications(string,uint256)":"8b55e500","products(string)":"0186a423","registerProduct(string,string,string,string,uint256,uint256,string)":"a624fe30","totalEvents()":"ba870686","totalProducts()":"9b9d326d","totalVerifications()":"ac90c140","verifyProduct(string,string,uint256)":"a8dfdccb","verifyProductAuthenticity(string)":"6ed0e0cb"}}}}}