{
  "_format": "hh-sol-artifact-1",
  "contractName": "TrueChain",
  "sourceName": "contracts/TrueChain.sol",
  "abi": [
    {
      "inputs": [],
      "stateMutability": "nonpayable",
      "type": "constructor"
    },
    {
      "anonymous": false,
      "inputs": [
        {
          "indexed": true,
          "internalType": "string",
          "name": "productId",
          "type": "string"
        },
        {
          "indexed": false,
          "internalType": "string",
          "name": "location",
          "type": "string"
        },
        {
          "indexed": true,
          "internalType": "address",
          "name": "updatedBy",
          "type": "address"
        }
      ],
      "name": "LocationUpdated",
      "type": "event"
    },
    {
      "anonymous": false,
      "inputs": [
        {
          "indexed": true,
          "internalType": "string",
          "name": "productId",
          "type": "string"
        },
        {
          "indexed": false,
          "internalType": "string",
          "name": "name",
          "type": "string"
        },
        {
          "indexed": true,
          "internalType": "address",
          "name": "owner",
          "type": "address"
        }
      ],
      "name": "ProductAdded",
      "type": "event"
    },
    {
      "anonymous": false,
      "inputs": [
        {
          "indexed": true,
          "internalType": "string",
          "name": "productId",
          "type": "string"
        },
        {
          "indexed": true,
          "internalType": "address",
          "name": "updatedBy",
          "type": "address"
        }
      ],
      "name": "ProductUpdated",
      "type": "event"
    },
    {
      "anonymous": false,
      "inputs": [
        {
          "indexed": true,
          "internalType": "string",
          "name": "shipmentId",
          "type": "string"
        },
        {
          "indexed": true,
          "internalType": "string",
          "name": "productId",
          "type": "string"
        },
        {
          "indexed": true,
          "internalType": "address",
          "name": "shipper",
          "type": "address"
        }
      ],
      "name": "ShipmentCreated",
      "type": "event"
    },
    {
      "anonymous": false,
      "inputs": [
        {
          "indexed": true,
          "internalType": "string",
          "name": "shipmentId",
          "type": "string"
        },
        {
          "indexed": false,
          "internalType": "uint8",
          "name": "status",
          "type": "uint8"
        },
        {
          "indexed": true,
          "internalType": "address",
          "name": "updatedBy",
          "type": "address"
        }
      ],
      "name": "ShipmentStatusUpdated",
      "type": "event"
    },
    {
      "inputs": [
        {
          "internalType": "string",
          "name": "_id",
          "type": "string"
        },
        {
          "internalType": "string",
          "name": "_name",
          "type": "string"
        },
        {
          "internalType": "string",
          "name": "_description",
          "type": "string"
        },
        {
          "internalType": "string",
          "name": "_category",
          "type": "string"
        },
        {
          "internalType": "uint256",
          "name": "_price",
          "type": "uint256"
        },
        {
          "internalType": "uint256",
          "name": "_stockQuantity",
          "type": "uint256"
        },
        {
          "internalType": "string",
          "name": "_sku",
          "type": "string"
        },
        {
          "internalType": "uint256",
          "name": "_weight",
          "type": "uint256"
        },
        {
          "internalType": "string",
          "name": "_dimensions",
          "type": "string"
        }
      ],
      "name": "addProduct",
      "outputs": [],
      "stateMutability": "nonpayable",
      "type": "function"
    },
    {
      "inputs": [
        {
          "internalType": "string",
          "name": "_shipmentId",
          "type": "string"
        },
        {
          "internalType": "string",
          "name": "_productId",
          "type": "string"
        },
        {
          "internalType": "string",
          "name": "_fromLocation",
          "type": "string"
        },
        {
          "internalType": "string",
          "name": "_toLocation",
          "type": "string"
        },
        {
          "internalType": "uint256",
          "name": "_quantity",
          "type": "uint256"
        }
      ],
      "name": "createShipment",
      "outputs": [],
      "stateMutability": "nonpayable",
      "type": "function"
    },
    {
      "inputs": [],
      "name": "getAllProductIds",
      "outputs": [
        {
          "internalType": "string[]",
          "name": "",
          "type": "string[]"
        }
      ],
      "stateMutability": "view",
      "type": "function"
    },
    {
      "inputs": [],
      "name": "getAllShipmentIds",
      "outputs": [
        {
          "internalType": "string[]",
          "name": "",
          "type": "string[]"
        }
      ],
      "stateMutability": "view",
      "type": "function"
    },
    {
      "inputs": [
        {
          "internalType": "string",
          "name": "_productId",
          "type": "string"
        }
      ],
      "name": "getProduct",
      "outputs": [
        {
          "internalType": "string",
          "name": "name",
          "type": "string"
        },
        {
          "internalType": "string",
          "name": "description",
          "type": "string"
        },
        {
          "internalType": "uint256",
          "name": "price",
          "type": "uint256"
        },
        {
          "internalType": "uint256",
          "name": "stockQuantity",
          "type": "uint256"
        },
        {
          "internalType": "address",
          "name": "productOwner",
          "type": "address"
        }
      ],
      "stateMutability": "view",
      "type": "function"
    },
    {
      "inputs": [
        {
          "internalType": "string",
          "name": "_productId",
          "type": "string"
        }
      ],
      "name": "getProductDetails",
      "outputs": [
        {
          "internalType": "string",
          "name": "category",
          "type": "string"
        },
        {
          "internalType": "string",
          "name": "sku",
          "type": "string"
        },
        {
          "internalType": "uint8",
          "name": "status",
          "type": "uint8"
        },
        {
          "internalType": "uint256",
          "name": "createdAt",
          "type": "uint256"
        }
      ],
      "stateMutability": "view",
      "type": "function"
    },
    {
      "inputs": [
        {
          "internalType": "string",
          "name": "_productId",
          "type": "string"
        }
      ],
      "name": "getProductLocations",
      "outputs": [
        {
          "internalType": "string[]",
          "name": "locations",
          "type": "string[]"
        },
        {
          "internalType": "uint256[]",
          "name": "timestamps",
          "type": "uint256[]"
        },
        {
          "internalType": "address[]",
          "name": "updaters",
          "type": "address[]"
        }
      ],
      "stateMutability": "view",
      "type": "function"
    },
    {
      "inputs": [
        {
          "internalType": "string",
          "name": "_shipmentId",
          "type": "string"
        }
      ],
      "name": "getShipment",
      "outputs": [
        {
          "internalType": "string",
          "name": "productId",
          "type": "string"
        },
        {
          "internalType": "string",
          "name": "fromLocation",
          "type": "string"
        },
        {
          "internalType": "string",
          "name": "toLocation",
          "type": "string"
        },
        {
          "internalType": "uint256",
          "name": "quantity",
          "type": "uint256"
        },
        {
          "internalType": "uint8",
          "name": "status",
          "type": "uint8"
        }
      ],
      "stateMutability": "view",
      "type": "function"
    },
    {
      "inputs": [
        {
          "internalType": "string",
          "name": "_shipmentId",
          "type": "string"
        }
      ],
      "name": "getShipmentDates",
      "outputs": [
        {
          "internalType": "uint256",
          "name": "shipmentDate",
          "type": "uint256"
        },
        {
          "internalType": "uint256",
          "name": "deliveryDate",
          "type": "uint256"
        },
        {
          "internalType": "address",
          "name": "shipper",
          "type": "address"
        }
      ],
      "stateMutability": "view",
      "type": "function"
    },
    {
      "inputs": [],
      "name": "getTotalProducts",
      "outputs": [
        {
          "internalType": "uint256",
          "name": "",
          "type": "uint256"
        }
      ],
      "stateMutability": "view",
      "type": "function"
    },
    {
      "inputs": [],
      "name": "getTotalShipments",
      "outputs": [
        {
          "internalType": "uint256",
          "name": "",
          "type": "uint256"
        }
      ],
      "stateMutability": "view",
      "type": "function"
    },
    {
      "inputs": [
        {
          "internalType": "address",
          "name": "_user",
          "type": "address"
        }
      ],
      "name": "getUserProducts",
      "outputs": [
        {
          "internalType": "string[]",
          "name": "",
          "type": "string[]"
        }
      ],
      "stateMutability": "view",
      "type": "function"
    },
    {
      "inputs": [],
      "name": "owner",
      "outputs": [
        {
          "internalType": "address",
          "name": "",
          "type": "address"
        }
      ],
      "stateMutability": "view",
      "type": "function"
    },
    {
      "inputs": [
        {
          "internalType": "uint256",
          "name": "",
          "type": "uint256"
        }
      ],
      "name": "productIds",
      "outputs": [
        {
          "internalType": "string",
          "name": "",
          "type": "string"
        }
      ],
      "stateMutability": "view",
      "type": "function"
    },
    {
      "inputs": [
        {
          "internalType": "string",
          "name": "",
          "type": "string"
        },
        {
          "internalType": "uint256",
          "name": "",
          "type": "uint256"
        }
      ],
      "name": "productLocations",
      "outputs": [
        {
          "internalType": "string",
          "name": "location",
          "type": "string"
        },
        {
          "internalType": "uint256",
          "name": "timestamp",
          "type": "uint256"
        },
        {
          "internalType": "address",
          "name": "updatedBy",
          "type": "address"
        }
      ],
      "stateMutability": "view",
      "type": "function"
    },
    {
      "inputs": [
        {
          "internalType": "string",
          "name": "",
          "type": "string"
        }
      ],
      "name": "products",
      "outputs": [
        {
          "internalType": "string",
          "name": "id",
          "type": "string"
        },
        {
          "internalType": "string",
          "name": "name",
          "type": "string"
        },
        {
          "internalType": "string",
          "name": "description",
          "type": "string"
        },
        {
          "internalType": "string",
          "name": "category",
          "type": "string"
        },
        {
          "internalType": "uint256",
          "name": "price",
          "type": "uint256"
        },
        {
          "internalType": "uint256",
          "name": "stockQuantity",
          "type": "uint256"
        },
        {
          "internalType": "string",
          "name": "sku",
          "type": "string"
        },
        {
          "internalType": "uint8",
          "name": "status",
          "type": "uint8"
        },
        {
          "internalType": "uint256",
          "name": "weight",
          "type": "uint256"
        },
        {
          "internalType": "string",
          "name": "dimensions",
          "type": "string"
        },
        {
          "internalType": "uint256",
          "name": "createdAt",
          "type": "uint256"
        },
        {
          "internalType": "address",
          "name": "productOwner",
          "type": "address"
        },
        {
          "internalType": "bool",
          "name": "exists",
          "type": "bool"
        }
      ],
      "stateMutability": "view",
      "type": "function"
    },
    {
      "inputs": [
        {
          "internalType": "uint256",
          "name": "",
          "type": "uint256"
        }
      ],
      "name": "shipmentIds",
      "outputs": [
        {
          "internalType": "string",
          "name": "",
          "type": "string"
        }
      ],
      "stateMutability": "view",
      "type": "function"
    },
    {
      "inputs": [
        {
          "internalType": "string",
          "name": "",
          "type": "string"
        }
      ],
      "name": "shipments",
      "outputs": [
        {
          "internalType": "string",
          "name": "id",
          "type": "string"
        },
        {
          "internalType": "string",
          "name": "productId",
          "type": "string"
        },
        {
          "internalType": "string",
          "name": "fromLocation",
          "type": "string"
        },
        {
          "internalType": "string",
          "name": "toLocation",
          "type": "string"
        },
        {
          "internalType": "uint256",
          "name": "quantity",
          "type": "uint256"
        },
        {
          "internalType": "uint256",
          "name": "shipmentDate",
          "type": "uint256"
        },
        {
          "internalType": "uint256",
          "name": "deliveryDate",
          "type": "uint256"
        },
        {
          "internalType": "uint8",
          "name": "status",
          "type": "uint8"
        },
        {
          "internalType": "address",
          "name": "shipper",
          "type": "address"
        },
        {
          "internalType": "bool",
          "name": "exists",
          "type": "bool"
        }
      ],
      "stateMutability": "view",
      "type": "function"
    },
    {
      "inputs": [
        {
          "internalType": "address",
          "name": "newOwner",
          "type": "address"
        }
      ],
      "name": "transferOwnership",
      "outputs": [],
      "stateMutability": "nonpayable",
      "type": "function"
    },
    {
      "inputs": [
        {
          "internalType": "string",
          "name": "_productId",
          "type": "string"
        },
        {
          "internalType": "string",
          "name": "_location",
          "type": "string"
        }
      ],
      "name": "updateLocation",
      "outputs": [],
      "stateMutability": "nonpayable",
      "type": "function"
    },
    {
      "inputs": [
        {
          "internalType": "string",
          "name": "_id",
          "type": "string"
        },
        {
          "internalType": "string",
          "name": "_name",
          "type": "string"
        },
        {
          "internalType": "string",
          "name": "_description",
          "type": "string"
        },
        {
          "internalType": "uint256",
          "name": "_price",
          "type": "uint256"
        },
        {
          "internalType": "uint256",
          "name": "_stockQuantity",
          "type": "uint256"
        }
      ],
      "name": "updateProduct",
      "outputs": [],
      "stateMutability": "nonpayable",
      "type": "function"
    },
    {
      "inputs": [
        {
          "internalType": "string",
          "name": "_shipmentId",
          "type": "string"
        },
        {
          "internalType": "uint8",
          "name": "_status",
          "type": "uint8"
        }
      ],
      "name": "updateShipmentStatus",
      "outputs": [],
      "stateMutability": "nonpayable",
      "type": "function"
    },
    {
      "inputs": [
        {
          "internalType": "address",
          "name": "",
          "type": "address"
        },
        {
          "internalType": "uint256",
          "name": "",
          "type": "uint256"
        }
      ],
      "name": "userProducts",
      "outputs": [
        {
          "internalType": "string",
          "name": "",
          "type": "string"
        }
      ],
      "stateMutability": "view",
      "type": "function"
    },
    {
      "inputs": [
        {
          "internalType": "string",
          "name": "_productId",
          "type": "string"
        }
      ],
      "name": "verifyProduct",
      "outputs": [
        {
          "internalType": "bool",
          "name": "",
          "type": "bool"
        }
      ],
      "stateMutability": "view",
      "type": "function"
    }
  ],
  "bytecode": "0x6080806040523461002857600080546001600160a01b031916331790556121d6908161002e8239f35b600080fdfe608060405260048036101561001357600080fd5b60009060e08235811c9081630186a42314611b7b578163198c59b014611a305781633307602e1461199c5781633d527883146119305781633eb9b9f8146118e05781634d8e6b6f146117f4578163570aea8a146117d65781635ceaef5b146116c5578163663c01af1461163157816368111cce146114be5781636852ca22146111f35781636d116a4f146110445781637dfdc23414610c0a578163885301b214610bec5781638da5cb5b14610bc557816392efc45314610b5e57816393aef09314610aaf578163cb51bba914610a4b578163da34f3d5146108ef578163e7d5c46a146107c0578163f2fde38b146106f6578163f6ddac7414610533578163fd22ae01146101c2575063fee7f53b1461012a57600080fd5b346101be57602090816003193601126101ba576001600160a01b0361014d611f55565b16835281526040822080549061016282612175565b936101706040519586611d55565b828552908152828120838086015b84841061019c57604051828152806101988185018a611ef9565b0390f35b60019182916101aa85611e2e565b815201920192019190849061017e565b8280fd5b5080fd5b9050346101ba5760a03660031901126101ba576001600160401b0391803583811161052f576101f49036908301611d76565b91602490813585811161052b5761020e9036908501611d76565b94604435818111610527576102269036908601611d76565b906064359081116105275761023e9036908601611d76565b91856084356040519461027860ff600b888d8181516102638160209e8f809601611dd1565b81016001815203019020015460a01c166120e4565b60ff6007604051888181885198019761029281838b611dd1565b81016003815203019020015460a81c166104e4578851156104a157811561045e57918893918b969593604051946102c886611d1e565b8686528786018d815260408701918252606087019283526080870193845260a087019442865260c08801968b885288019a8b52610100880199338b5261012089019960018b526040518093819251809261032192611dd1565b8101600381520301902096516103379088611fb5565b516103459060018801611fb5565b516103539060028701611fb5565b516103619060038601611fb5565b5188840155516005830155516006820155600701925160ff16835492600160a81b6101009003905160081b169160ff60a81b9051151560a81b169269ffffffffffffffffffff60b01b16171717905560065491600160401b83101561044d57600183018060065583101561043c575050906104058161040a93600687527ff652222313e28459528d920b65115c16c04f3efc82aaedc97be59f3f377c0d3f01611fb5565b6120c4565b61041433926120c4565b907f6564cb02325c2c5415250de8529928819b335f212b61192d12219dc8953872f98480a480f35b634e487b7160e01b86526032905284fd5b634e487b7160e01b86526041905284fd5b60405162461bcd60e51b8152808901879052601f818901527f5175616e74697479206d7573742062652067726561746572207468616e2030006044820152606490fd5b60405162461bcd60e51b8152808901879052601b818901527f536869706d656e742049442063616e6e6f7420626520656d70747900000000006044820152606490fd5b60405162461bcd60e51b81528089018790526017818901527f536869706d656e7420616c7265616479206578697374730000000000000000006044820152606490fd5b8780fd5b8680fd5b8480fd5b5050346101be5760403660031901126101be576001600160401b0381358181116106f2576105649036908401611d76565b906024359081116106f25761057c9036908401611d76565b906040519281519061059f60ff600b60209788818189019761026381838b611dd1565b8351156106ae576040516105b281611d3a565b848152858101904282526105d9876040830195338752604051809381928a51928391611dd1565b81016002815203019020805490600160401b82101561069b579061060291600182018155611f99565b939093610689575092600261066f937ff68190ed2b09bda1559d6f13b6edb83a142e2623672087d98d68f8e722d2aa6a9693610642610683975183611fb5565b516001820155019060018060a01b039051166bffffffffffffffffffffffff60a01b8254161790556120c4565b926040519182918683523396830190611ed4565b0390a380f35b634e487b7160e01b8952889052602488fd5b634e487b7160e01b8a526041855260248afd5b60405162461bcd60e51b8152908101859052601860248201527f4c6f636174696f6e2063616e6e6f7420626520656d70747900000000000000006044820152606490fd5b8380fd5b5050346101be5760203660031901126101be57610711611f55565b8254906001600160a01b03908183163303610783571691821561073f57506001600160a01b03191617815580f35b60649060206040519162461bcd60e51b8352820152602060248201527f4e6577206f776e65722063616e6e6f74206265207a65726f20616464726573736044820152fd5b60405162461bcd60e51b815260208186015260166024820152752737ba103a34329031b7b73a3930b1ba1037bbb732b960511b6044820152606490fd5b5050346101be5760403660031901126101be5780356001600160401b0381116101ba576107f09036908301611d76565b6024359160ff83168093036106f2576040519061083460ff60078551946020818189019761081f81838b611dd1565b81016003815203019020015460a81c16612129565b600284116108ba575090610858602061087f93604051809381928651928391611dd1565b81016003815203019020600781018460ff19825416179055600284146108ae575b506120c4565b6040519182527f8c5b71bc886e5e9ee39bc37fbadcd65784a46f541e54fc564e046f00999fb88f60203393a380f35b60064291015538610879565b60649060206040519162461bcd60e51b8352820152600e60248201526d496e76616c69642073746174757360901b6044820152fd5b919050346101ba57602091826003193601126106f2578135936001600160401b038511610a485750610a3961095e8461092e610a1e9736908701611d76565b6040519061094d60ff600783519486818187019761081f81838b611dd1565b604051938492839251928391611dd1565b8101600381520301902092610a2b6040519561097987611d1e565b61098286611e2e565b875261099060018701611e2e565b8188019081526109a260028801611e2e565b976040810198895261012060ff60076109bd60038c01611e2e565b978860608601528b01549a8b6080860152600581015460a0860152600681015460c08601520154818116809a85015260018060a01b038160081c1661010085015260a81c16151591015251965160405198899860a08a5260a08a0190611ed4565b9188830390890152611ed4565b908582036040870152611ed4565b91606084015260808301520390f35b80fd5b5050346101be5760203660031901126101be57356005548110156101be57610a9b90600561019893527f036b6384b5eca791c62761152d0c79bb0604c104a5fb6f4eb0703f3154bb3db001611e2e565b604051918291602083526020830190611ed4565b5050346101be5760403660031901126101be578035906001600160401b0382116101ba57610adf91369101611d76565b90610afc6020602435938160405193828580945193849201611dd1565b81016002815203019020908154831015610a4857610b4f610b1d8484611f99565b50610b2781611e2e565b90600181015490600260018060a01b0391015416604051938493606085526060850190611ed4565b91602084015260408301520390f35b828434610a48576020366003190112610a48578135906001600160401b038211610a4857602060ff600b610bab83610b9836888a01611d76565b8160405193828580945193849201611dd1565b81016001815203019020015460a01c166040519015158152f35b8334610a485780600319360112610a4857546040516001600160a01b039091168152602090f35b8334610a485780600319360112610a48576020600654604051908152f35b9050346101ba5761012091826003193601126106f2576001600160401b0392813584811161104057610c3f9036908401611d76565b92602491823586811161052757610c599036908601611d76565b9560443581811161103c57610c719036908701611d76565b9060643581811161103857610c899036908801611d76565b60a4359060c43583811161103457610ca49036908a01611d76565b926101043590811161103457610cbd9036908a01611d76565b9360ff600b610cdb60208d8160405193828580945193849201611dd1565b81016001815203019020015460a01c16610ff857895115610fb5578a5115610f725789610e2494600b9794610d2a9997948f948f60ff968415600014610f6057506002955b6040519d8e611cec565b8d5260208d015260408c015260608b015260843560808b015260a08a015260c0890152168487015260e435610100870152818601524261014086015233610160860152600161018086015260405160208181610d8c8c83815193849201611dd1565b8101600181520301902092610da2865185611fb5565b610db3602087015160018601611fb5565b610dc4604087015160028601611fb5565b610dd5606087015160038601611fb5565b60808601518885015560a08601516005850155610df960c087015160068601611fb5565b60ff60078501918701511660ff19825416179055610100850151600884015584015160098301611fb5565b610140830151600a820155019060018060a01b036101608201511682549161018060ff60a01b910151151560a01b16916affffffffffffffffffffff60a81b1617179055600554600160401b9081811015610f3c576001810180600555811015610f4e5784610eb891600589527f036b6384b5eca791c62761152d0c79bb0604c104a5fb6f4eb0703f3154bb3db001611fb5565b3386528260205260408620805491821015610f3c5790610edd91600182018155611f6b565b929092610f2c5750509061040581610ef493611fb5565b7f6bb50ef6a506e9e67570b71c52bbd1d6c8d109554cf81e9108fb33e69dc08513604051602081528061068333956020830190611ed4565b634e487b7160e01b865285905284fd5b634e487b7160e01b8752604184528287fd5b634e487b7160e01b8752603284528287fd5b95600a8511610d205760019650610d20565b60405162461bcd60e51b81526020818b0152601c818a01527f50726f64756374206e616d652063616e6e6f7420626520656d707479000000006044820152606490fd5b60405162461bcd60e51b81526020818b0152601a818a01527f50726f647563742049442063616e6e6f7420626520656d7074790000000000006044820152606490fd5b60405162461bcd60e51b81526020818b01526016818a01527550726f6475637420616c72656164792065786973747360501b6044820152606490fd5b8b80fd5b8980fd5b8880fd5b8580fd5b828434610a485760a0366003190112610a48576001600160401b0382358181116101ba576110759036908501611d76565b906024358181116106f25761108d9036908601611d76565b906044359081116106f2576110a59036908601611d76565b608435906040516110c860ff600b875193602081818b019661026381838a611dd1565b604051600b86516110da818486611dd1565b600190830190815282900360200190912001546001600160a01b031633036111b75760079495969161113361111f602061113c94604051809381928d51928391611dd1565b810160018152030190209560018701611fb5565b60028501611fb5565b606435908301558060058301558015600014611191575001805460ff191660021790555b61116a33916120c4565b7f41043a9286f62a677e4495d038611b75dc22e89446f3606edaa01fb8c5430e358380a380f35b600a106111a95701805460ff19166001179055611160565b01805460ff19169055611160565b60405162461bcd60e51b815260208189015260156024820152742737ba103a343290383937b23ab1ba1037bbb732b960591b6044820152606490fd5b5050346101be5760209182600319360112610a485781356001600160401b0381116101be5791611227849336908301611d76565b916040519183519361125f60ff600b8884019761124581898b611dd1565b87019689816001998a815203019020015460a01c166120e4565b61127160405195869251928391611dd1565b84019385816002968781520301902080549061128c82612175565b9561129a6040519788611d55565b82875290845286842084918888015b84841061146f5750505050508351946112c186612175565b946112cf6040519687611d55565b868652601f1996876112e082612175565b01855b8181106114605750506112f581612175565b906113036040519283611d55565b80825261130f81612175565b9489858401960136873761132282612175565b936113306040519586611d55565b82855261133c83612175565b8587019b01368c37875b8381106113d15750505050826113676040519860608a5260608a0190611ef9565b91888303828a01525191828152019390855b8181106113be5750505085830360408701525180835291810195925b8281106113a25785870386f35b83516001600160a01b0316875295810195928101928401611395565b8251865294840194918401918701611379565b6113e281839d9b9d9a98999a61218c565b51516113ee828d61218c565b526113f9818c61218c565b5087611405828461218c565b510151611412828761218c565b526001600160a01b036040611427838561218c565b51015116611435828861218c565b52600019811461144d578b019a989a97969597611346565b634e487b7160e01b875260118352602487fd5b606089820186015284016112e3565b9660038a829b97989960405161148481611d3a565b61148d87611e2e565b81528685015483820152858701546001600160a01b031660408201528152979b9998979590920194930192016112a9565b9050346101ba576020806003193601126106f2578235936001600160401b038511610a485750611517816114f86116109636908701611d76565b6040519061094d60ff600b83519486818187019761026381838b611dd1565b8101600181520301902061161d6040519261153184611cec565b61153a83611e2e565b845261154860018401611e2e565b818501908152600b61155c60028601611e2e565b976040870198895261157060038701611e2e565b6060880152850154946080870195865260058101549760a0880198895261159960068301611e2e565b60c089015260ff6007830154169088015260088101546101008801526115c160098201611e2e565b610120880152600a81015461014088015201549461018060ff60018060a01b038816978861016085015260a01c161515910152519551925194519260405197889760a0895260a0890190611ed4565b9187830390880152611ed4565b926040850152606084015260808301520390f35b8334610a485780600319360112610a48576005549061164f82612175565b9161165d6040519384611d55565b808352600582526020917f036b6384b5eca791c62761152d0c79bb0604c104a5fb6f4eb0703f3154bb3db0838086015b8484106116a757604051828152806101988185018a611ef9565b60019182916116b585611e2e565b815201920192019190849061168d565b919050346101ba5760203660031901126101ba578035926001600160401b038411610a48575060ff6117026020610b9861176f9636908601611d76565b8101600381520301902061171581611e2e565b9361172260018301611e2e565b9161172f60028201611e2e565b61179961173e60038401611e2e565b968301549661178b60058501549361177d60076006880154970154986040519d8e9d8e610140908181520190611ed4565b8d810360208f015290611ed4565b908b820360408d0152611ed4565b9089820360608b0152611ed4565b608088019690965260a087015260c086015281831690850152600881901c6001600160a01b031661010085015260a81c1615156101208301520390f35b8334610a485780600319360112610a48576020600554604051908152f35b9050346101ba576020806003193601126106f2578235936001600160401b038511610a48575061182d8161092e60609636908701611d76565b81016003815203019020906040519361184585611d1e565b61184e83611e2e565b855261185c60018401611e2e565b8286015261186c60028401611e2e565b604086015261187d60038401611e2e565b8686015282015460808501526005820154938460a082015260076006840154938460c084015201549360ff85169082015261012060ff60018060a01b038660081c16958661010085015260a81c1615159101526040519384528301526040820152f35b5050346101be5760203660031901126101be57356006548110156101be57610a9b90600661019893527ff652222313e28459528d920b65115c16c04f3efc82aaedc97be59f3f377c0d3f01611e2e565b828434610a48576040366003190112610a485761194b611f55565b6001600160a01b03168152602082905260408120805460243591908210156101ba579061197791611f6b565b92909261198a57610198610a9b84611e2e565b634e487b7160e01b8252819052602490fd5b8334610a485780600319360112610a4857600654906119ba82612175565b916119c86040519384611d55565b808352600682526020917ff652222313e28459528d920b65115c16c04f3efc82aaedc97be59f3f377c0d3f838086015b848410611a1257604051828152806101988185018a611ef9565b6001918291611a2085611e2e565b81520192019201919084906119f8565b9050346101ba576020806003193601126106f2578235936001600160401b038511610a485750611b6c611a6d826114f8611b5f9736908801611d76565b810160018152030190209160ff60405195611a8787611cec565b611a9085611e2e565b8752611a9e60018601611e2e565b83880152611aae60028601611e2e565b6040880152611abf60038601611e2e565b90606088019182528501546080880152600585015460a0880152611ae560068601611e2e565b9660c08101978852826007870154169681019687526008860154610100820152611b1160098701611e2e565b61012082015261018083600b600a8901549889610140860152015460018060a01b03811661016085015260a01c16151591015251955194511693604051968796608088526080880190611ed4565b9186830390870152611ed4565b91604084015260608301520390f35b90508234610a48576020366003190112610a48578235906001600160401b038211610a485750611bae9036908401611d76565b6040518181809351602081930191611bc592611dd1565b810160018152036020019020611bda81611e2e565b91611be760018301611e2e565b93611bf460028401611e2e565b91611c0160038501611e2e565b91840154600585015490611c1760068701611e2e565b600787015460ff169160088801549360098901611c3390611e2e565b96600a8a015499600b0154986040519c8d9c8d6101a09081815201611c5791611ed4565b8d810360208f0152611c6891611ed4565b8c810360408e0152611c7991611ed4565b8b810360608d0152611c8a91611ed4565b9160808b015260a08a015288810360c08a0152611ca691611ed4565b92870152610100860152848103610120860152611cc291611ed4565b91610140840152600160a01b60019003811661016084015260a01c60ff1615156101808301520390f35b6101a081019081106001600160401b03821117611d0857604052565b634e487b7160e01b600052604160045260246000fd5b61014081019081106001600160401b03821117611d0857604052565b606081019081106001600160401b03821117611d0857604052565b90601f801991011681019081106001600160401b03821117611d0857604052565b81601f82011215611dcc578035906001600160401b038211611d085760405192611daa601f8401601f191660200185611d55565b82845260208383010111611dcc57816000926020809301838601378301015290565b600080fd5b60005b838110611de45750506000910152565b8181015183820152602001611dd4565b90600182811c92168015611e24575b6020831014611e0e57565b634e487b7160e01b600052602260045260246000fd5b91607f1691611e03565b9060405191826000825492611e4284611df4565b908184526001948581169081600014611eb15750600114611e6e575b5050611e6c92500383611d55565b565b9093915060005260209081600020936000915b818310611e99575050611e6c93508201013880611e5e565b85548884018501529485019487945091830191611e81565b915050611e6c94506020925060ff191682840152151560051b8201013880611e5e565b90602091611eed81518092818552858086019101611dd1565b601f01601f1916010190565b908082519081815260208091019281808460051b8301019501936000915b848310611f275750505050505090565b9091929394958480611f45600193601f198682030187528a51611ed4565b9801930193019194939290611f17565b600435906001600160a01b0382168203611dcc57565b8054821015611f835760005260206000200190600090565b634e487b7160e01b600052603260045260246000fd5b8054821015611f83576000526003602060002091020190600090565b91909182516001600160401b038111611d0857611fd28254611df4565b601f811161207c575b50602080601f831160011461201857508192939460009261200d575b50508160011b916000199060031b1c1916179055565b015190503880611ff7565b90601f198316958460005282600020926000905b8882106120645750508360019596971061204b575b505050811b019055565b015160001960f88460031b161c19169055388080612041565b8060018596829496860151815501950193019061202c565b600083815260208120601f840160051c810192602085106120ba575b601f0160051c01915b8281106120af575050611fdb565b8181556001016120a1565b9092508290612098565b6120dc90602060405192828480945193849201611dd1565b810103902090565b156120eb57565b60405162461bcd60e51b8152602060048201526016602482015275141c9bd91d58dd08191bd95cc81b9bdd08195e1a5cdd60521b6044820152606490fd5b1561213057565b60405162461bcd60e51b815260206004820152601760248201527f536869706d656e7420646f6573206e6f742065786973740000000000000000006044820152606490fd5b6001600160401b038111611d085760051b60200190565b8051821015611f835760209160051b01019056fea2646970667358221220515543a70aaa78eb286c7064c596e7a63d7a676ba6f5e1e542f2f5c7710a140f64736f6c63430008140033",
  "linkReferences": {},
  "deployedLinkReferences": {}
}